{
  "address": "0xA716E186bee0D2f5752b4e3aAE1b060a9c166542",
  "abi": [
    {
      "inputs": [
        {
          "internalType": "contract IEntryPoint",
          "name": "anEntryPoint",
          "type": "address"
        },
        {
          "internalType": "address",
          "name": "helperAddr",
          "type": "address"
        }
      ],
      "stateMutability": "nonpayable",
      "type": "constructor"
    },
    {
      "inputs": [
        {
          "internalType": "address",
          "name": "target",
          "type": "address"
        }
      ],
      "name": "AddressEmptyCode",
      "type": "error"
    },
    {
      "inputs": [],
      "name": "ECDSAInvalidSignature",
      "type": "error"
    },
    {
      "inputs": [
        {
          "internalType": "uint256",
          "name": "length",
          "type": "uint256"
        }
      ],
      "name": "ECDSAInvalidSignatureLength",
      "type": "error"
    },
    {
      "inputs": [
        {
          "internalType": "bytes32",
          "name": "s",
          "type": "bytes32"
        }
      ],
      "name": "ECDSAInvalidSignatureS",
      "type": "error"
    },
    {
      "inputs": [
        {
          "internalType": "address",
          "name": "implementation",
          "type": "address"
        }
      ],
      "name": "ERC1967InvalidImplementation",
      "type": "error"
    },
    {
      "inputs": [],
      "name": "ERC1967NonPayable",
      "type": "error"
    },
    {
      "inputs": [],
      "name": "FailedInnerCall",
      "type": "error"
    },
    {
      "inputs": [],
      "name": "InvalidInitialization",
      "type": "error"
    },
    {
      "inputs": [],
      "name": "NotInitializing",
      "type": "error"
    },
    {
      "inputs": [],
      "name": "UUPSUnauthorizedCallContext",
      "type": "error"
    },
    {
      "inputs": [
        {
          "internalType": "bytes32",
          "name": "slot",
          "type": "bytes32"
        }
      ],
      "name": "UUPSUnsupportedProxiableUUID",
      "type": "error"
    },
    {
      "anonymous": false,
      "inputs": [
        {
          "indexed": true,
          "internalType": "contract IEntryPoint",
          "name": "entryPoint",
          "type": "address"
        },
        {
          "indexed": true,
          "internalType": "address",
          "name": "owner",
          "type": "address"
        }
      ],
      "name": "HybridAccountInitialized",
      "type": "event"
    },
    {
      "anonymous": false,
      "inputs": [
        {
          "indexed": false,
          "internalType": "uint64",
          "name": "version",
          "type": "uint64"
        }
      ],
      "name": "Initialized",
      "type": "event"
    },
    {
      "anonymous": false,
      "inputs": [
        {
          "indexed": true,
          "internalType": "address",
          "name": "implementation",
          "type": "address"
        }
      ],
      "name": "Upgraded",
      "type": "event"
    },
    {
      "inputs": [
        {
          "internalType": "bytes32",
          "name": "userKey",
          "type": "bytes32"
        },
        {
          "internalType": "bytes",
          "name": "req",
          "type": "bytes"
        }
      ],
      "name": "CallOffchain",
      "outputs": [
        {
          "internalType": "uint32",
          "name": "",
          "type": "uint32"
        },
        {
          "internalType": "bytes",
          "name": "",
          "type": "bytes"
        }
      ],
      "stateMutability": "nonpayable",
      "type": "function"
    },
    {
      "inputs": [
        {
          "internalType": "address",
          "name": "caller",
          "type": "address"
        },
        {
          "internalType": "bool",
          "name": "allowed",
          "type": "bool"
        }
      ],
      "name": "PermitCaller",
      "outputs": [],
      "stateMutability": "nonpayable",
      "type": "function"
    },
    {
      "inputs": [
        {
          "internalType": "address",
          "name": "",
          "type": "address"
        }
      ],
      "name": "PermittedCallers",
      "outputs": [
        {
          "internalType": "bool",
          "name": "",
          "type": "bool"
        }
      ],
      "stateMutability": "view",
      "type": "function"
    },
    {
      "inputs": [],
      "name": "UPGRADE_INTERFACE_VERSION",
      "outputs": [
        {
          "internalType": "string",
          "name": "",
          "type": "string"
        }
      ],
      "stateMutability": "view",
      "type": "function"
    },
    {
      "inputs": [],
      "name": "_helperAddr",
      "outputs": [
        {
          "internalType": "address",
          "name": "",
          "type": "address"
        }
      ],
      "stateMutability": "view",
      "type": "function"
    },
    {
      "inputs": [],
      "name": "addDeposit",
      "outputs": [],
      "stateMutability": "payable",
      "type": "function"
    },
    {
      "inputs": [],
      "name": "entryPoint",
      "outputs": [
        {
          "internalType": "contract IEntryPoint",
          "name": "",
          "type": "address"
        }
      ],
      "stateMutability": "view",
      "type": "function"
    },
    {
      "inputs": [
        {
          "internalType": "address",
          "name": "dest",
          "type": "address"
        },
        {
          "internalType": "uint256",
          "name": "value",
          "type": "uint256"
        },
        {
          "internalType": "bytes",
          "name": "func",
          "type": "bytes"
        }
      ],
      "name": "execute",
      "outputs": [],
      "stateMutability": "nonpayable",
      "type": "function"
    },
    {
      "inputs": [
        {
          "internalType": "address[]",
          "name": "dest",
          "type": "address[]"
        },
        {
          "internalType": "bytes[]",
          "name": "func",
          "type": "bytes[]"
        }
      ],
      "name": "executeBatch",
      "outputs": [],
      "stateMutability": "nonpayable",
      "type": "function"
    },
    {
      "inputs": [],
      "name": "getDeposit",
      "outputs": [
        {
          "internalType": "uint256",
          "name": "",
          "type": "uint256"
        }
      ],
      "stateMutability": "view",
      "type": "function"
    },
    {
      "inputs": [],
      "name": "getNonce",
      "outputs": [
        {
          "internalType": "uint256",
          "name": "",
          "type": "uint256"
        }
      ],
      "stateMutability": "view",
      "type": "function"
    },
    {
      "inputs": [
        {
          "internalType": "address",
          "name": "anOwner",
          "type": "address"
        }
      ],
      "name": "initialize",
      "outputs": [],
      "stateMutability": "nonpayable",
      "type": "function"
    },
    {
      "inputs": [],
      "name": "owner",
      "outputs": [
        {
          "internalType": "address",
          "name": "",
          "type": "address"
        }
      ],
      "stateMutability": "view",
      "type": "function"
    },
    {
      "inputs": [],
      "name": "proxiableUUID",
      "outputs": [
        {
          "internalType": "bytes32",
          "name": "",
          "type": "bytes32"
        }
      ],
      "stateMutability": "view",
      "type": "function"
    },
    {
      "inputs": [
        {
          "internalType": "address",
          "name": "newImplementation",
          "type": "address"
        },
        {
          "internalType": "bytes",
          "name": "data",
          "type": "bytes"
        }
      ],
      "name": "upgradeToAndCall",
      "outputs": [],
      "stateMutability": "payable",
      "type": "function"
    },
    {
      "inputs": [
        {
          "components": [
            {
              "internalType": "address",
              "name": "sender",
              "type": "address"
            },
            {
              "internalType": "uint256",
              "name": "nonce",
              "type": "uint256"
            },
            {
              "internalType": "bytes",
              "name": "initCode",
              "type": "bytes"
            },
            {
              "internalType": "bytes",
              "name": "callData",
              "type": "bytes"
            },
            {
              "internalType": "uint256",
              "name": "callGasLimit",
              "type": "uint256"
            },
            {
              "internalType": "uint256",
              "name": "verificationGasLimit",
              "type": "uint256"
            },
            {
              "internalType": "uint256",
              "name": "preVerificationGas",
              "type": "uint256"
            },
            {
              "internalType": "uint256",
              "name": "maxFeePerGas",
              "type": "uint256"
            },
            {
              "internalType": "uint256",
              "name": "maxPriorityFeePerGas",
              "type": "uint256"
            },
            {
              "internalType": "bytes",
              "name": "paymasterAndData",
              "type": "bytes"
            },
            {
              "internalType": "bytes",
              "name": "signature",
              "type": "bytes"
            }
          ],
          "internalType": "struct UserOperation",
          "name": "userOp",
          "type": "tuple"
        },
        {
          "internalType": "bytes32",
          "name": "userOpHash",
          "type": "bytes32"
        },
        {
          "internalType": "uint256",
          "name": "missingAccountFunds",
          "type": "uint256"
        }
      ],
      "name": "validateUserOp",
      "outputs": [
        {
          "internalType": "uint256",
          "name": "validationData",
          "type": "uint256"
        }
      ],
      "stateMutability": "nonpayable",
      "type": "function"
    },
    {
      "inputs": [
        {
          "internalType": "address payable",
          "name": "withdrawAddress",
          "type": "address"
        },
        {
          "internalType": "uint256",
          "name": "amount",
          "type": "uint256"
        }
      ],
      "name": "withdrawDepositTo",
      "outputs": [],
      "stateMutability": "nonpayable",
      "type": "function"
    },
    {
      "stateMutability": "payable",
      "type": "receive"
    }
  ],
  "transactionHash": "0xfe2e52214a6beaf52993ba0e7f7a9fc7708002311f8f40c8f9de726617476ffa",
  "args": [
    "0x5ff137d4b0fdcd49dca30c7cf57e578a026d2789",
    "0x587a06089ed54101dd6d9A8ecDe1d146f97Af6B8"
  ],
  "numDeployments": 1,
  "solcInputHash": "65f063f4a8e01fe4150e5e8a6d14df78",
  "bytecode": "0x60c06040523073ffffffffffffffffffffffffffffffffffffffff1660809073ffffffffffffffffffffffffffffffffffffffff168152503480156200004457600080fd5b5060405162002daf38038062002daf83398181016040528101906200006a9190620002d8565b8173ffffffffffffffffffffffffffffffffffffffff1660a08173ffffffffffffffffffffffffffffffffffffffff168152505080600260006101000a81548173ffffffffffffffffffffffffffffffffffffffff021916908373ffffffffffffffffffffffffffffffffffffffff160217905550620000ef620000f760201b60201c565b505062000361565b6000620001096200020160201b60201c565b90508060000160089054906101000a900460ff161562000155576040517ff92ee8a900000000000000000000000000000000000000000000000000000000815260040160405180910390fd5b67ffffffffffffffff80168160000160009054906101000a900467ffffffffffffffff1667ffffffffffffffff1614620001fe5767ffffffffffffffff8160000160006101000a81548167ffffffffffffffff021916908367ffffffffffffffff1602179055507fc7f505b2f371ae2175ee4913f4499e1f2633a7b5936321eed1cdaeb6115181d267ffffffffffffffff604051620001f5919062000344565b60405180910390a15b50565b60007ff0c57e16840df040f15088dc2f81fe391c3923bec73e23a9662efc9c229c6a00905090565b600080fd5b600073ffffffffffffffffffffffffffffffffffffffff82169050919050565b60006200025b826200022e565b9050919050565b60006200026f826200024e565b9050919050565b620002818162000262565b81146200028d57600080fd5b50565b600081519050620002a18162000276565b92915050565b620002b2816200024e565b8114620002be57600080fd5b50565b600081519050620002d281620002a7565b92915050565b60008060408385031215620002f257620002f162000229565b5b6000620003028582860162000290565b92505060206200031585828601620002c1565b9150509250929050565b600067ffffffffffffffff82169050919050565b6200033e816200031f565b82525050565b60006020820190506200035b600083018462000333565b92915050565b60805160a051612a136200039c60003960008181610934015261127e015260008181610f6d01528181610fc2015261117d0152612a136000f3fe6080604052600436106101025760003560e01c80638da5cb5b11610095578063bd3ff2d711610064578063bd3ff2d714610313578063c399ec881461033e578063c4d66de814610369578063d087d28814610392578063efae5edc146103bd57610109565b80638da5cb5b14610269578063ad3cb1cc14610294578063b0d691fe146102bf578063b61d27f6146102ea57610109565b80634d44560d116100d15780634d44560d146101bb5780634f1ef286146101e457806352d1902d14610200578063839f84571461022b57610109565b806318dfb3c71461010e5780633122b07e146101375780633a871cdd146101745780634a58db19146101b157610109565b3661010957005b600080fd5b34801561011a57600080fd5b50610135600480360381019061013091906119fd565b6103e6565b005b34801561014357600080fd5b5061015e60048036038101906101599190611adc565b6104f2565b60405161016b9190611b24565b60405180910390f35b34801561018057600080fd5b5061019b60048036038101906101969190611bd0565b610512565b6040516101a89190611c4e565b60405180910390f35b6101b9610545565b005b3480156101c757600080fd5b506101e260048036038101906101dd9190611ca7565b6105ba565b005b6101fe60048036038101906101f99190611e28565b61063a565b005b34801561020c57600080fd5b50610215610659565b6040516102229190611e93565b60405180910390f35b34801561023757600080fd5b50610252600480360381019061024d9190611eae565b61068c565b604051610260929190611fa8565b60405180910390f35b34801561027557600080fd5b5061027e61088d565b60405161028b9190611fe7565b60405180910390f35b3480156102a057600080fd5b506102a96108b3565b6040516102b69190612057565b60405180910390f35b3480156102cb57600080fd5b506102d46108ec565b6040516102e191906120d8565b60405180910390f35b3480156102f657600080fd5b50610311600480360381019061030c9190612149565b610958565b005b34801561031f57600080fd5b506103286109b5565b6040516103359190611fe7565b60405180910390f35b34801561034a57600080fd5b506103536109db565b6040516103609190611c4e565b60405180910390f35b34801561037557600080fd5b50610390600480360381019061038b9190611adc565b610a63565b005b34801561039e57600080fd5b506103a7610a6f565b6040516103b49190611c4e565b60405180910390f35b3480156103c957600080fd5b506103e460048036038101906103df91906121e9565b610afa565b005b6103ee610b5c565b818190508484905014610436576040517f08c379a000000000000000000000000000000000000000000000000000000000815260040161042d90612275565b60405180910390fd5b60005b848490508110156104eb576104de85858381811061045a57610459612295565b5b905060200201602081019061046f9190611adc565b600085858581811061048457610483612295565b5b905060200281019061049691906122d3565b8080601f016020809104026020016040519081016040528093929190818152602001838380828437600081840152601f19601f82011690508083019250505050505050610c2b565b8080600101915050610439565b5050505050565b60006020528060005260406000206000915054906101000a900460ff1681565b600061051c610caf565b6105268484610d26565b90506105358460200135610e04565b61053e82610e07565b9392505050565b61054d6108ec565b73ffffffffffffffffffffffffffffffffffffffff1663b760faf934306040518363ffffffff1660e01b81526004016105869190611fe7565b6000604051808303818588803b15801561059f57600080fd5b505af11580156105b3573d6000803e3d6000fd5b5050505050565b6105c2610ea3565b6105ca6108ec565b73ffffffffffffffffffffffffffffffffffffffff1663205c287883836040518363ffffffff1660e01b8152600401610604929190612345565b600060405180830381600087803b15801561061e57600080fd5b505af1158015610632573d6000803e3d6000fd5b505050505050565b610642610f6b565b61064b82611051565b610655828261105c565b5050565b600061066361117b565b7f360894a13ba1a3210667c828492db98dca3e2076cc3735a920a3ca505d382bbc60001b905090565b60006060600073ffffffffffffffffffffffffffffffffffffffff16600260009054906101000a900473ffffffffffffffffffffffffffffffffffffffff1673ffffffffffffffffffffffffffffffffffffffff1603610721576040517f08c379a0000000000000000000000000000000000000000000000000000000008152600401610718906123ba565b60405180910390fd5b6000803373ffffffffffffffffffffffffffffffffffffffff1673ffffffffffffffffffffffffffffffffffffffff16815260200190815260200160002060009054906101000a900460ff166107ac576040517f08c379a00000000000000000000000000000000000000000000000000000000081526004016107a390612426565b60405180910390fd5b6000600260009054906101000a900473ffffffffffffffffffffffffffffffffffffffff16905084336040516020016107e69291906124af565b6040516020818303038152906040528051906020012094508073ffffffffffffffffffffffffffffffffffffffff16636868c6b986866040518363ffffffff1660e01b81526004016108399291906124db565b6000604051808303816000875af1158015610858573d6000803e3d6000fd5b505050506040513d6000823e3d601f19601f8201168201806040525081019061088191906125a7565b92509250509250929050565b600160009054906101000a900473ffffffffffffffffffffffffffffffffffffffff1681565b6040518060400160405280600581526020017f352e302e3000000000000000000000000000000000000000000000000000000081525081565b60006001600211610932576040517f08c379a00000000000000000000000000000000000000000000000000000000081526004016109299061264f565b60405180910390fd5b7f0000000000000000000000000000000000000000000000000000000000000000905090565b610960610b5c565b6109af848484848080601f016020809104026020016040519081016040528093929190818152602001838380828437600081840152601f19601f82011690508083019250505050505050610c2b565b50505050565b600260009054906101000a900473ffffffffffffffffffffffffffffffffffffffff1681565b60006109e56108ec565b73ffffffffffffffffffffffffffffffffffffffff166370a08231306040518263ffffffff1660e01b8152600401610a1d9190611fe7565b602060405180830381865afa158015610a3a573d6000803e3d6000fd5b505050506040513d601f19601f82011682018060405250810190610a5e9190612684565b905090565b610a6c81611202565b50565b6000610a796108ec565b73ffffffffffffffffffffffffffffffffffffffff166335567e1a3060006040518363ffffffff1660e01b8152600401610ab4929190612710565b602060405180830381865afa158015610ad1573d6000803e3d6000fd5b505050506040513d601f19601f82011682018060405250810190610af59190612684565b905090565b610b02610b5c565b806000808473ffffffffffffffffffffffffffffffffffffffff1673ffffffffffffffffffffffffffffffffffffffff16815260200190815260200160002060006101000a81548160ff0219169083151502179055505050565b610b646108ec565b73ffffffffffffffffffffffffffffffffffffffff163373ffffffffffffffffffffffffffffffffffffffff161480610bea5750600160009054906101000a900473ffffffffffffffffffffffffffffffffffffffff1673ffffffffffffffffffffffffffffffffffffffff163373ffffffffffffffffffffffffffffffffffffffff16145b610c29576040517f08c379a0000000000000000000000000000000000000000000000000000000008152600401610c2090612785565b60405180910390fd5b565b6000808473ffffffffffffffffffffffffffffffffffffffff168484604051610c5491906127e1565b60006040518083038185875af1925050503d8060008114610c91576040519150601f19603f3d011682016040523d82523d6000602084013e610c96565b606091505b509150915081610ca857805160208201fd5b5050505050565b610cb76108ec565b73ffffffffffffffffffffffffffffffffffffffff163373ffffffffffffffffffffffffffffffffffffffff1614610d24576040517f08c379a0000000000000000000000000000000000000000000000000000000008152600401610d1b90612844565b60405180910390fd5b565b600080610d32836112e2565b9050610d9a84806101400190610d4891906122d3565b8080601f016020809104026020016040519081016040528093929190818152602001838380828437600081840152601f19601f820116905080830192505050505050508261131890919063ffffffff16565b73ffffffffffffffffffffffffffffffffffffffff16600160009054906101000a900473ffffffffffffffffffffffffffffffffffffffff1673ffffffffffffffffffffffffffffffffffffffff1614610df8576001915050610dfe565b60009150505b92915050565b50565b60008114610ea05760003373ffffffffffffffffffffffffffffffffffffffff16827fffffffffffffffffffffffffffffffffffffffffffffffffffffffffffffffff90604051610e579061288a565b600060405180830381858888f193505050503d8060008114610e95576040519150601f19603f3d011682016040523d82523d6000602084013e610e9a565b606091505b50509050505b50565b600160009054906101000a900473ffffffffffffffffffffffffffffffffffffffff1673ffffffffffffffffffffffffffffffffffffffff163373ffffffffffffffffffffffffffffffffffffffff161480610f2a57503073ffffffffffffffffffffffffffffffffffffffff163373ffffffffffffffffffffffffffffffffffffffff16145b610f69576040517f08c379a0000000000000000000000000000000000000000000000000000000008152600401610f60906128eb565b60405180910390fd5b565b7f000000000000000000000000000000000000000000000000000000000000000073ffffffffffffffffffffffffffffffffffffffff163073ffffffffffffffffffffffffffffffffffffffff16148061101857507f000000000000000000000000000000000000000000000000000000000000000073ffffffffffffffffffffffffffffffffffffffff16610fff611344565b73ffffffffffffffffffffffffffffffffffffffff1614155b1561104f576040517fe07c8dba00000000000000000000000000000000000000000000000000000000815260040160405180910390fd5b565b611059610ea3565b50565b8173ffffffffffffffffffffffffffffffffffffffff166352d1902d6040518163ffffffff1660e01b8152600401602060405180830381865afa9250505080156110c457506040513d601f19601f820116820180604052508101906110c19190612920565b60015b61110557816040517f4c9c8ce30000000000000000000000000000000000000000000000000000000081526004016110fc9190611fe7565b60405180910390fd5b7f360894a13ba1a3210667c828492db98dca3e2076cc3735a920a3ca505d382bbc60001b811461116c57806040517faa1d49a40000000000000000000000000000000000000000000000000000000081526004016111639190611e93565b60405180910390fd5b611176838361139b565b505050565b7f000000000000000000000000000000000000000000000000000000000000000073ffffffffffffffffffffffffffffffffffffffff163073ffffffffffffffffffffffffffffffffffffffff1614611200576040517fe07c8dba00000000000000000000000000000000000000000000000000000000815260040160405180910390fd5b565b80600160006101000a81548173ffffffffffffffffffffffffffffffffffffffff021916908373ffffffffffffffffffffffffffffffffffffffff160217905550600160009054906101000a900473ffffffffffffffffffffffffffffffffffffffff1673ffffffffffffffffffffffffffffffffffffffff167f000000000000000000000000000000000000000000000000000000000000000073ffffffffffffffffffffffffffffffffffffffff167f9b59b00fd640e59bf0e3692231b0a9c9637a5dea0c4b2a681c2987883c65ea9d60405160405180910390a350565b60007f19457468657265756d205369676e6564204d6573736167653a0a33320000000060005281601c52603c6000209050919050565b600080600080611328868661140e565b925092509250611338828261146a565b82935050505092915050565b60006113727f360894a13ba1a3210667c828492db98dca3e2076cc3735a920a3ca505d382bbc60001b6115ce565b60000160009054906101000a900473ffffffffffffffffffffffffffffffffffffffff16905090565b6113a4826115d8565b8173ffffffffffffffffffffffffffffffffffffffff167fbc7cd75a20ee27fd9adebab32041f755214dbc6bffa90cc0225b39da2e5c2d3b60405160405180910390a2600081511115611401576113fb82826116a5565b5061140a565b611409611729565b5b5050565b600080600060418451036114535760008060006020870151925060408701519150606087015160001a905061144588828585611766565b955095509550505050611463565b60006002855160001b9250925092505b9250925092565b6000600381111561147e5761147d61294d565b5b8260038111156114915761149061294d565b5b03156115ca57600160038111156114ab576114aa61294d565b5b8260038111156114be576114bd61294d565b5b036114f5576040517ff645eedf00000000000000000000000000000000000000000000000000000000815260040160405180910390fd5b600260038111156115095761150861294d565b5b82600381111561151c5761151b61294d565b5b03611561578060001c6040517ffce698f70000000000000000000000000000000000000000000000000000000081526004016115589190611c4e565b60405180910390fd5b6003808111156115745761157361294d565b5b8260038111156115875761158661294d565b5b036115c957806040517fd78bce0c0000000000000000000000000000000000000000000000000000000081526004016115c09190611e93565b60405180910390fd5b5b5050565b6000819050919050565b60008173ffffffffffffffffffffffffffffffffffffffff163b0361163457806040517f4c9c8ce300000000000000000000000000000000000000000000000000000000815260040161162b9190611fe7565b60405180910390fd5b806116617f360894a13ba1a3210667c828492db98dca3e2076cc3735a920a3ca505d382bbc60001b6115ce565b60000160006101000a81548173ffffffffffffffffffffffffffffffffffffffff021916908373ffffffffffffffffffffffffffffffffffffffff16021790555050565b60606000808473ffffffffffffffffffffffffffffffffffffffff16846040516116cf91906127e1565b600060405180830381855af49150503d806000811461170a576040519150601f19603f3d011682016040523d82523d6000602084013e61170f565b606091505b509150915061171f85838361185a565b9250505092915050565b6000341115611764576040517fb398979f00000000000000000000000000000000000000000000000000000000815260040160405180910390fd5b565b60008060007f7fffffffffffffffffffffffffffffff5d576e7357a4501ddfe92f46681b20a08460001c11156117a6576000600385925092509250611850565b6000600188888888604051600081526020016040526040516117cb9493929190612998565b6020604051602081039080840390855afa1580156117ed573d6000803e3d6000fd5b505050602060405103519050600073ffffffffffffffffffffffffffffffffffffffff168173ffffffffffffffffffffffffffffffffffffffff160361184157600060016000801b93509350935050611850565b8060008060001b935093509350505b9450945094915050565b60608261186f5761186a826118e9565b6118e1565b60008251148015611897575060008473ffffffffffffffffffffffffffffffffffffffff163b145b156118d957836040517f9996b3150000000000000000000000000000000000000000000000000000000081526004016118d09190611fe7565b60405180910390fd5b8190506118e2565b5b9392505050565b6000815111156118fc5780518082602001fd5b6040517f1425ea4200000000000000000000000000000000000000000000000000000000815260040160405180910390fd5b6000604051905090565b600080fd5b600080fd5b600080fd5b600080fd5b600080fd5b60008083601f84011261196757611966611942565b5b8235905067ffffffffffffffff81111561198457611983611947565b5b6020830191508360208202830111156119a05761199f61194c565b5b9250929050565b60008083601f8401126119bd576119bc611942565b5b8235905067ffffffffffffffff8111156119da576119d9611947565b5b6020830191508360208202830111156119f6576119f561194c565b5b9250929050565b60008060008060408587031215611a1757611a16611938565b5b600085013567ffffffffffffffff811115611a3557611a3461193d565b5b611a4187828801611951565b9450945050602085013567ffffffffffffffff811115611a6457611a6361193d565b5b611a70878288016119a7565b925092505092959194509250565b600073ffffffffffffffffffffffffffffffffffffffff82169050919050565b6000611aa982611a7e565b9050919050565b611ab981611a9e565b8114611ac457600080fd5b50565b600081359050611ad681611ab0565b92915050565b600060208284031215611af257611af1611938565b5b6000611b0084828501611ac7565b91505092915050565b60008115159050919050565b611b1e81611b09565b82525050565b6000602082019050611b396000830184611b15565b92915050565b600080fd5b60006101608284031215611b5b57611b5a611b3f565b5b81905092915050565b6000819050919050565b611b7781611b64565b8114611b8257600080fd5b50565b600081359050611b9481611b6e565b92915050565b6000819050919050565b611bad81611b9a565b8114611bb857600080fd5b50565b600081359050611bca81611ba4565b92915050565b600080600060608486031215611be957611be8611938565b5b600084013567ffffffffffffffff811115611c0757611c0661193d565b5b611c1386828701611b44565b9350506020611c2486828701611b85565b9250506040611c3586828701611bbb565b9150509250925092565b611c4881611b9a565b82525050565b6000602082019050611c636000830184611c3f565b92915050565b6000611c7482611a7e565b9050919050565b611c8481611c69565b8114611c8f57600080fd5b50565b600081359050611ca181611c7b565b92915050565b60008060408385031215611cbe57611cbd611938565b5b6000611ccc85828601611c92565b9250506020611cdd85828601611bbb565b9150509250929050565b600080fd5b6000601f19601f8301169050919050565b7f4e487b7100000000000000000000000000000000000000000000000000000000600052604160045260246000fd5b611d3582611cec565b810181811067ffffffffffffffff82111715611d5457611d53611cfd565b5b80604052505050565b6000611d6761192e565b9050611d738282611d2c565b919050565b600067ffffffffffffffff821115611d9357611d92611cfd565b5b611d9c82611cec565b9050602081019050919050565b82818337600083830152505050565b6000611dcb611dc684611d78565b611d5d565b905082815260208101848484011115611de757611de6611ce7565b5b611df2848285611da9565b509392505050565b600082601f830112611e0f57611e0e611942565b5b8135611e1f848260208601611db8565b91505092915050565b60008060408385031215611e3f57611e3e611938565b5b6000611e4d85828601611ac7565b925050602083013567ffffffffffffffff811115611e6e57611e6d61193d565b5b611e7a85828601611dfa565b9150509250929050565b611e8d81611b64565b82525050565b6000602082019050611ea86000830184611e84565b92915050565b60008060408385031215611ec557611ec4611938565b5b6000611ed385828601611b85565b925050602083013567ffffffffffffffff811115611ef457611ef361193d565b5b611f0085828601611dfa565b9150509250929050565b600063ffffffff82169050919050565b611f2381611f0a565b82525050565b600081519050919050565b600082825260208201905092915050565b60005b83811015611f63578082015181840152602081019050611f48565b60008484015250505050565b6000611f7a82611f29565b611f848185611f34565b9350611f94818560208601611f45565b611f9d81611cec565b840191505092915050565b6000604082019050611fbd6000830185611f1a565b8181036020830152611fcf8184611f6f565b90509392505050565b611fe181611a9e565b82525050565b6000602082019050611ffc6000830184611fd8565b92915050565b600081519050919050565b600082825260208201905092915050565b600061202982612002565b612033818561200d565b9350612043818560208601611f45565b61204c81611cec565b840191505092915050565b60006020820190508181036000830152612071818461201e565b905092915050565b6000819050919050565b600061209e61209961209484611a7e565b612079565b611a7e565b9050919050565b60006120b082612083565b9050919050565b60006120c2826120a5565b9050919050565b6120d2816120b7565b82525050565b60006020820190506120ed60008301846120c9565b92915050565b60008083601f84011261210957612108611942565b5b8235905067ffffffffffffffff81111561212657612125611947565b5b6020830191508360018202830111156121425761214161194c565b5b9250929050565b6000806000806060858703121561216357612162611938565b5b600061217187828801611ac7565b945050602061218287828801611bbb565b935050604085013567ffffffffffffffff8111156121a3576121a261193d565b5b6121af878288016120f3565b925092505092959194509250565b6121c681611b09565b81146121d157600080fd5b50565b6000813590506121e3816121bd565b92915050565b60008060408385031215612200576121ff611938565b5b600061220e85828601611ac7565b925050602061221f858286016121d4565b9150509250929050565b7f77726f6e67206172726179206c656e6774687300000000000000000000000000600082015250565b600061225f60138361200d565b915061226a82612229565b602082019050919050565b6000602082019050818103600083015261228e81612252565b9050919050565b7f4e487b7100000000000000000000000000000000000000000000000000000000600052603260045260246000fd5b600080fd5b600080fd5b600080fd5b600080833560016020038436030381126122f0576122ef6122c4565b5b80840192508235915067ffffffffffffffff821115612312576123116122c9565b5b60208301925060018202360383131561232e5761232d6122ce565b5b509250929050565b61233f81611c69565b82525050565b600060408201905061235a6000830185612336565b6123676020830184611c3f565b9392505050565b7f48656c7065722061646472657373206e6f742073657400000000000000000000600082015250565b60006123a460168361200d565b91506123af8261236e565b602082019050919050565b600060208201905081810360008301526123d381612397565b9050919050565b7f5065726d697373696f6e2064656e696564000000000000000000000000000000600082015250565b600061241060118361200d565b915061241b826123da565b602082019050919050565b6000602082019050818103600083015261243f81612403565b9050919050565b6000819050919050565b61246161245c82611b64565b612446565b82525050565b60008160601b9050919050565b600061247f82612467565b9050919050565b600061249182612474565b9050919050565b6124a96124a482611a9e565b612486565b82525050565b60006124bb8285612450565b6020820191506124cb8284612498565b6014820191508190509392505050565b60006040820190506124f06000830185611e84565b81810360208301526125028184611f6f565b90509392505050565b61251481611f0a565b811461251f57600080fd5b50565b6000815190506125318161250b565b92915050565b600061254a61254584611d78565b611d5d565b90508281526020810184848401111561256657612565611ce7565b5b612571848285611f45565b509392505050565b600082601f83011261258e5761258d611942565b5b815161259e848260208601612537565b91505092915050565b600080604083850312156125be576125bd611938565b5b60006125cc85828601612522565b925050602083015167ffffffffffffffff8111156125ed576125ec61193d565b5b6125f985828601612579565b9150509250929050565b7f666f6f0000000000000000000000000000000000000000000000000000000000600082015250565b600061263960038361200d565b915061264482612603565b602082019050919050565b600060208201905081810360008301526126688161262c565b9050919050565b60008151905061267e81611ba4565b92915050565b60006020828403121561269a57612699611938565b5b60006126a88482850161266f565b91505092915050565b6000819050919050565b600077ffffffffffffffffffffffffffffffffffffffffffffffff82169050919050565b60006126fa6126f56126f0846126b1565b612079565b6126bb565b9050919050565b61270a816126df565b82525050565b60006040820190506127256000830185611fd8565b6127326020830184612701565b9392505050565b7f6163636f756e743a206e6f74204f776e6572206f7220456e747279506f696e74600082015250565b600061276f60208361200d565b915061277a82612739565b602082019050919050565b6000602082019050818103600083015261279e81612762565b9050919050565b600081905092915050565b60006127bb82611f29565b6127c581856127a5565b93506127d5818560208601611f45565b80840191505092915050565b60006127ed82846127b0565b915081905092915050565b7f6163636f756e743a206e6f742066726f6d20456e747279506f696e7400000000600082015250565b600061282e601c8361200d565b9150612839826127f8565b602082019050919050565b6000602082019050818103600083015261285d81612821565b9050919050565b50565b60006128746000836127a5565b915061287f82612864565b600082019050919050565b600061289582612867565b9150819050919050565b7f6f6e6c79206f776e657200000000000000000000000000000000000000000000600082015250565b60006128d5600a8361200d565b91506128e08261289f565b602082019050919050565b60006020820190508181036000830152612904816128c8565b9050919050565b60008151905061291a81611b6e565b92915050565b60006020828403121561293657612935611938565b5b60006129448482850161290b565b91505092915050565b7f4e487b7100000000000000000000000000000000000000000000000000000000600052602160045260246000fd5b600060ff82169050919050565b6129928161297c565b82525050565b60006080820190506129ad6000830187611e84565b6129ba6020830186612989565b6129c76040830185611e84565b6129d46060830184611e84565b9594505050505056fea26469706673582212200418ca82f65c87f88a4728cb64bf2ce320dfc799cd6f674d7b6023182ccf6b7e64736f6c63430008180033",
  "devdoc": {
    "errors": {
      "AddressEmptyCode(address)": [
        {
          "details": "There's no code at `target` (it is not a contract)."
        }
      ],
      "ECDSAInvalidSignature()": [
        {
          "details": "The signature derives the `address(0)`."
        }
      ],
      "ECDSAInvalidSignatureLength(uint256)": [
        {
          "details": "The signature has an invalid length."
        }
      ],
      "ECDSAInvalidSignatureS(bytes32)": [
        {
          "details": "The signature has an S value that is in the upper half order."
        }
      ],
      "ERC1967InvalidImplementation(address)": [
        {
          "details": "The `implementation` of the proxy is invalid."
        }
      ],
      "ERC1967NonPayable()": [
        {
          "details": "An upgrade function sees `msg.value > 0` that may be lost."
        }
      ],
      "FailedInnerCall()": [
        {
          "details": "A call to an address target failed. The target may have reverted."
        }
      ],
      "InvalidInitialization()": [
        {
          "details": "The contract is already initialized."
        }
      ],
      "NotInitializing()": [
        {
          "details": "The contract is not initializing."
        }
      ],
      "UUPSUnauthorizedCallContext()": [
        {
          "details": "The call is from an unauthorized context."
        }
      ],
      "UUPSUnsupportedProxiableUUID(bytes32)": [
        {
          "details": "The storage `slot` is unsupported as a UUID."
        }
      ]
    },
    "events": {
      "Initialized(uint64)": {
        "details": "Triggered when the contract has been initialized or reinitialized."
      },
      "Upgraded(address)": {
        "details": "Emitted when the implementation is upgraded."
      }
    },
    "kind": "dev",
    "methods": {
      "initialize(address)": {
        "details": "The _entryPoint member is immutable, to reduce gas consumption.  To upgrade EntryPoint, a new implementation of HybridAccount must be deployed with the new EntryPoint address, then upgrading the implementation by calling `upgradeTo()`"
      },
      "proxiableUUID()": {
        "details": "Implementation of the ERC1822 {proxiableUUID} function. This returns the storage slot used by the implementation. It is used to validate the implementation's compatibility when performing an upgrade. IMPORTANT: A proxy pointing at a proxiable contract should not be considered proxiable itself, because this risks bricking a proxy that upgrades to it, by delegating to itself until out of gas. Thus it is critical that this function revert if invoked through a proxy. This is guaranteed by the `notDelegated` modifier."
      },
      "upgradeToAndCall(address,bytes)": {
        "custom:oz-upgrades-unsafe-allow-reachable": "delegatecall",
        "details": "Upgrade the implementation of the proxy to `newImplementation`, and subsequently execute the function call encoded in `data`. Calls {_authorizeUpgrade}. Emits an {Upgraded} event."
      },
      "withdrawDepositTo(address,uint256)": {
        "params": {
          "amount": "to withdraw",
          "withdrawAddress": "target to send to"
        }
      }
    },
    "version": 1
  },
  "userdoc": {
    "kind": "user",
    "methods": {
      "addDeposit()": {
        "notice": "deposit more funds for this account in the entryPoint"
      },
      "entryPoint()": {
        "notice": "return the entryPoint used by this account. subclass should return the current entryPoint used by this account."
      },
      "execute(address,uint256,bytes)": {
        "notice": "execute a transaction (called directly from owner, or by entryPoint)"
      },
      "executeBatch(address[],bytes[])": {
        "notice": "execute a sequence of transactions"
      },
      "getDeposit()": {
        "notice": "check current account deposit in the entryPoint"
      },
      "getNonce()": {
        "notice": "Return the account nonce. This method returns the next sequential nonce. For a nonce of a specific key, use `entrypoint.getNonce(account, key)`"
      },
      "validateUserOp((address,uint256,bytes,bytes,uint256,uint256,uint256,uint256,uint256,bytes,bytes),bytes32,uint256)": {
        "notice": "Validate user's signature and nonce. subclass doesn't need to override this method. Instead, it should override the specific internal validation methods."
      },
      "withdrawDepositTo(address,uint256)": {
        "notice": "withdraw value from the account's deposit"
      }
    },
    "notice": "minimal account.  this is sample minimal account.  has execute, eth handling methods  has a single signer that can send requests through the entryPoint.",
    "version": 1
  },
  "storageLayout": {
    "storage": [
      {
        "astId": 6355,
        "contract": "contracts/samples/HybridAccount.sol:HybridAccount",
        "label": "PermittedCallers",
        "offset": 0,
        "slot": "0",
        "type": "t_mapping(t_address,t_bool)"
      },
      {
        "astId": 6357,
        "contract": "contracts/samples/HybridAccount.sol:HybridAccount",
        "label": "owner",
        "offset": 0,
        "slot": "1",
        "type": "t_address"
      },
      {
        "astId": 6362,
        "contract": "contracts/samples/HybridAccount.sol:HybridAccount",
        "label": "_helperAddr",
        "offset": 0,
        "slot": "2",
        "type": "t_address"
      }
    ],
    "types": {
      "t_address": {
        "encoding": "inplace",
        "label": "address",
        "numberOfBytes": "20"
      },
      "t_bool": {
        "encoding": "inplace",
        "label": "bool",
        "numberOfBytes": "1"
      },
      "t_mapping(t_address,t_bool)": {
        "encoding": "mapping",
        "key": "t_address",
        "label": "mapping(address => bool)",
        "numberOfBytes": "32",
        "value": "t_bool"
      }
    }
  }
}