{
  "address": "0x21e95707213bF5fA0F7D0e7a57bf2ADd4C83a798",
  "abi": [
    {
      "inputs": [
        {
          "internalType": "address",
          "name": "_demoAddr",
          "type": "address"
        }
      ],
      "stateMutability": "nonpayable",
      "type": "constructor"
    },
    {
      "inputs": [
        {
          "internalType": "address",
          "name": "spender",
          "type": "address"
        },
        {
          "internalType": "uint256",
          "name": "allowance",
          "type": "uint256"
        },
        {
          "internalType": "uint256",
          "name": "needed",
          "type": "uint256"
        }
      ],
      "name": "ERC20InsufficientAllowance",
      "type": "error"
    },
    {
      "inputs": [
        {
          "internalType": "address",
          "name": "sender",
          "type": "address"
        },
        {
          "internalType": "uint256",
          "name": "balance",
          "type": "uint256"
        },
        {
          "internalType": "uint256",
          "name": "needed",
          "type": "uint256"
        }
      ],
      "name": "ERC20InsufficientBalance",
      "type": "error"
    },
    {
      "inputs": [
        {
          "internalType": "address",
          "name": "approver",
          "type": "address"
        }
      ],
      "name": "ERC20InvalidApprover",
      "type": "error"
    },
    {
      "inputs": [
        {
          "internalType": "address",
          "name": "receiver",
          "type": "address"
        }
      ],
      "name": "ERC20InvalidReceiver",
      "type": "error"
    },
    {
      "inputs": [
        {
          "internalType": "address",
          "name": "sender",
          "type": "address"
        }
      ],
      "name": "ERC20InvalidSender",
      "type": "error"
    },
    {
      "inputs": [
        {
          "internalType": "address",
          "name": "spender",
          "type": "address"
        }
      ],
      "name": "ERC20InvalidSpender",
      "type": "error"
    },
    {
      "inputs": [
        {
          "internalType": "address",
          "name": "owner",
          "type": "address"
        }
      ],
      "name": "OwnableInvalidOwner",
      "type": "error"
    },
    {
      "inputs": [
        {
          "internalType": "address",
          "name": "account",
          "type": "address"
        }
      ],
      "name": "OwnableUnauthorizedAccount",
      "type": "error"
    },
    {
      "anonymous": false,
      "inputs": [
        {
          "indexed": true,
          "internalType": "address",
          "name": "owner",
          "type": "address"
        },
        {
          "indexed": true,
          "internalType": "address",
          "name": "spender",
          "type": "address"
        },
        {
          "indexed": false,
          "internalType": "uint256",
          "name": "value",
          "type": "uint256"
        }
      ],
      "name": "Approval",
      "type": "event"
    },
    {
      "anonymous": false,
      "inputs": [
        {
          "indexed": false,
          "internalType": "string",
          "name": "question",
          "type": "string"
        }
      ],
      "name": "DailyQuestionUpdated",
      "type": "event"
    },
    {
      "anonymous": false,
      "inputs": [
        {
          "indexed": false,
          "internalType": "uint256",
          "name": "gameID",
          "type": "uint256"
        },
        {
          "indexed": false,
          "internalType": "address",
          "name": "winner",
          "type": "address"
        }
      ],
      "name": "GameResultsSubmitted",
      "type": "event"
    },
    {
      "anonymous": false,
      "inputs": [
        {
          "indexed": true,
          "internalType": "address",
          "name": "previousOwner",
          "type": "address"
        },
        {
          "indexed": true,
          "internalType": "address",
          "name": "newOwner",
          "type": "address"
        }
      ],
      "name": "OwnershipTransferred",
      "type": "event"
    },
    {
      "anonymous": false,
      "inputs": [
        {
          "indexed": true,
          "internalType": "uint256",
          "name": "gameID",
          "type": "uint256"
        },
        {
          "indexed": false,
          "internalType": "address",
          "name": "player",
          "type": "address"
        },
        {
          "indexed": false,
          "internalType": "string",
          "name": "answer",
          "type": "string"
        }
      ],
      "name": "PlayerSubmittedAnswer",
      "type": "event"
    },
    {
      "anonymous": false,
      "inputs": [
        {
          "indexed": false,
          "internalType": "address",
          "name": "user",
          "type": "address"
        },
        {
          "indexed": false,
          "internalType": "uint256",
          "name": "amount",
          "type": "uint256"
        }
      ],
      "name": "RewardClaimed",
      "type": "event"
    },
    {
      "anonymous": false,
      "inputs": [
        {
          "indexed": true,
          "internalType": "address",
          "name": "from",
          "type": "address"
        },
        {
          "indexed": true,
          "internalType": "address",
          "name": "to",
          "type": "address"
        },
        {
          "indexed": false,
          "internalType": "uint256",
          "name": "value",
          "type": "uint256"
        }
      ],
      "name": "Transfer",
      "type": "event"
    },
    {
      "inputs": [],
      "name": "HA",
      "outputs": [
        {
          "internalType": "contract HybridAccount",
          "name": "",
          "type": "address"
        }
      ],
      "stateMutability": "view",
      "type": "function"
    },
    {
      "inputs": [
        {
          "internalType": "address",
          "name": "owner",
          "type": "address"
        },
        {
          "internalType": "address",
          "name": "spender",
          "type": "address"
        }
      ],
      "name": "allowance",
      "outputs": [
        {
          "internalType": "uint256",
          "name": "",
          "type": "uint256"
        }
      ],
      "stateMutability": "view",
      "type": "function"
    },
    {
      "inputs": [
        {
          "internalType": "address",
          "name": "spender",
          "type": "address"
        },
        {
          "internalType": "uint256",
          "name": "value",
          "type": "uint256"
        }
      ],
      "name": "approve",
      "outputs": [
        {
          "internalType": "bool",
          "name": "",
          "type": "bool"
        }
      ],
      "stateMutability": "nonpayable",
      "type": "function"
    },
    {
      "inputs": [
        {
          "internalType": "address",
          "name": "account",
          "type": "address"
        }
      ],
      "name": "balanceOf",
      "outputs": [
        {
          "internalType": "uint256",
          "name": "",
          "type": "uint256"
        }
      ],
      "stateMutability": "view",
      "type": "function"
    },
    {
      "inputs": [],
      "name": "claimReward",
      "outputs": [],
      "stateMutability": "nonpayable",
      "type": "function"
    },
    {
      "inputs": [
        {
          "internalType": "address",
          "name": "",
          "type": "address"
        }
      ],
      "name": "consecutiveGamesPlayed",
      "outputs": [
        {
          "internalType": "uint256",
          "name": "",
          "type": "uint256"
        }
      ],
      "stateMutability": "view",
      "type": "function"
    },
    {
      "inputs": [],
      "name": "consecutiveReward",
      "outputs": [
        {
          "internalType": "uint256",
          "name": "",
          "type": "uint256"
        }
      ],
      "stateMutability": "view",
      "type": "function"
    },
    {
      "inputs": [],
      "name": "dailyReward",
      "outputs": [
        {
          "internalType": "uint256",
          "name": "",
          "type": "uint256"
        }
      ],
      "stateMutability": "view",
      "type": "function"
    },
    {
      "inputs": [],
      "name": "decimals",
      "outputs": [
        {
          "internalType": "uint8",
          "name": "",
          "type": "uint8"
        }
      ],
      "stateMutability": "view",
      "type": "function"
    },
    {
      "inputs": [
        {
          "internalType": "uint256",
          "name": "",
          "type": "uint256"
        }
      ],
      "name": "games",
      "outputs": [
        {
          "internalType": "string",
          "name": "question",
          "type": "string"
        },
        {
          "internalType": "uint256",
          "name": "timeOfFetch",
          "type": "uint256"
        },
        {
          "internalType": "address",
          "name": "winner",
          "type": "address"
        }
      ],
      "stateMutability": "view",
      "type": "function"
    },
    {
      "inputs": [],
      "name": "getCurrentQuesiton",
      "outputs": [
        {
          "internalType": "string",
          "name": "",
          "type": "string"
        }
      ],
      "stateMutability": "view",
      "type": "function"
    },
    {
      "inputs": [],
      "name": "getDailyQuestion",
      "outputs": [],
      "stateMutability": "nonpayable",
      "type": "function"
    },
    {
      "inputs": [
        {
          "internalType": "uint256",
          "name": "gameID",
          "type": "uint256"
        }
      ],
      "name": "getWinnerByGameID",
      "outputs": [
        {
          "internalType": "address",
          "name": "",
          "type": "address"
        }
      ],
      "stateMutability": "view",
      "type": "function"
    },
    {
      "inputs": [
        {
          "internalType": "uint256",
          "name": "",
          "type": "uint256"
        },
        {
          "internalType": "address",
          "name": "",
          "type": "address"
        }
      ],
      "name": "hasPlayed",
      "outputs": [
        {
          "internalType": "bool",
          "name": "",
          "type": "bool"
        }
      ],
      "stateMutability": "view",
      "type": "function"
    },
    {
      "inputs": [],
      "name": "name",
      "outputs": [
        {
          "internalType": "string",
          "name": "",
          "type": "string"
        }
      ],
      "stateMutability": "view",
      "type": "function"
    },
    {
      "inputs": [],
      "name": "owner",
      "outputs": [
        {
          "internalType": "address",
          "name": "",
          "type": "address"
        }
      ],
      "stateMutability": "view",
      "type": "function"
    },
    {
      "inputs": [],
      "name": "referralReward",
      "outputs": [
        {
          "internalType": "uint256",
          "name": "",
          "type": "uint256"
        }
      ],
      "stateMutability": "view",
      "type": "function"
    },
    {
      "inputs": [],
      "name": "renounceOwnership",
      "outputs": [],
      "stateMutability": "nonpayable",
      "type": "function"
    },
    {
      "inputs": [
        {
          "internalType": "address",
          "name": "",
          "type": "address"
        }
      ],
      "name": "rewards",
      "outputs": [
        {
          "internalType": "uint256",
          "name": "",
          "type": "uint256"
        }
      ],
      "stateMutability": "view",
      "type": "function"
    },
    {
      "inputs": [
        {
          "internalType": "uint256",
          "name": "_newConsecutiveReward",
          "type": "uint256"
        }
      ],
      "name": "setConsecutiveReward",
      "outputs": [],
      "stateMutability": "nonpayable",
      "type": "function"
    },
    {
      "inputs": [
        {
          "internalType": "uint256",
          "name": "_newDailyReward",
          "type": "uint256"
        }
      ],
      "name": "setDailyReward",
      "outputs": [],
      "stateMutability": "nonpayable",
      "type": "function"
    },
    {
      "inputs": [
        {
          "internalType": "uint256",
          "name": "_newReferralReward",
          "type": "uint256"
        }
      ],
      "name": "setReferralReward",
      "outputs": [],
      "stateMutability": "nonpayable",
      "type": "function"
    },
    {
      "inputs": [
        {
          "internalType": "string",
          "name": "answer",
          "type": "string"
        }
      ],
      "name": "submitByPlayer",
      "outputs": [],
      "stateMutability": "nonpayable",
      "type": "function"
    },
    {
      "inputs": [],
      "name": "submitResults",
      "outputs": [],
      "stateMutability": "nonpayable",
      "type": "function"
    },
    {
      "inputs": [],
      "name": "symbol",
      "outputs": [
        {
          "internalType": "string",
          "name": "",
          "type": "string"
        }
      ],
      "stateMutability": "view",
      "type": "function"
    },
    {
      "inputs": [],
      "name": "totalSupply",
      "outputs": [
        {
          "internalType": "uint256",
          "name": "",
          "type": "uint256"
        }
      ],
      "stateMutability": "view",
      "type": "function"
    },
    {
      "inputs": [
        {
          "internalType": "address",
          "name": "to",
          "type": "address"
        },
        {
          "internalType": "uint256",
          "name": "value",
          "type": "uint256"
        }
      ],
      "name": "transfer",
      "outputs": [
        {
          "internalType": "bool",
          "name": "",
          "type": "bool"
        }
      ],
      "stateMutability": "nonpayable",
      "type": "function"
    },
    {
      "inputs": [
        {
          "internalType": "address",
          "name": "from",
          "type": "address"
        },
        {
          "internalType": "address",
          "name": "to",
          "type": "address"
        },
        {
          "internalType": "uint256",
          "name": "value",
          "type": "uint256"
        }
      ],
      "name": "transferFrom",
      "outputs": [
        {
          "internalType": "bool",
          "name": "",
          "type": "bool"
        }
      ],
      "stateMutability": "nonpayable",
      "type": "function"
    },
    {
      "inputs": [
        {
          "internalType": "address",
          "name": "newOwner",
          "type": "address"
        }
      ],
      "name": "transferOwnership",
      "outputs": [],
      "stateMutability": "nonpayable",
      "type": "function"
    }
  ],
  "transactionHash": "0x8a1ecfd815e226051b4d7ea6503a3a7d196132e50d7606589e5e7dbe643019f3",
  "args": [
    "0xADF5390816274dD661b0c4D29C55d0ECA83Ff99D"
  ],
  "numDeployments": 1,
  "solcInputHash": "88ef3c7be9010846311ac6a18780c7d2",
  "bytecode": "0x608060405268056bc75e2d63100000600655678ac7230489e80000600755674563918244f400006008553480156200003657600080fd5b50604051620032cf380380620032cf83398181016040528101906200005c9190620002f4565b336040518060400160405280600e81526020017f507265736953696d20546f6b656e0000000000000000000000000000000000008152506040518060400160405280600381526020017f50535400000000000000000000000000000000000000000000000000000000008152508160039081620000da9190620005a0565b508060049081620000ec9190620005a0565b505050600073ffffffffffffffffffffffffffffffffffffffff168173ffffffffffffffffffffffffffffffffffffffff1603620001645760006040517f1e4fbdf70000000000000000000000000000000000000000000000000000000081526004016200015b919062000698565b60405180910390fd5b6200017581620001c460201b60201c565b50600081905080600a60006101000a81548173ffffffffffffffffffffffffffffffffffffffff021916908373ffffffffffffffffffffffffffffffffffffffff1602179055505050620006b5565b6000600560009054906101000a900473ffffffffffffffffffffffffffffffffffffffff16905081600560006101000a81548173ffffffffffffffffffffffffffffffffffffffff021916908373ffffffffffffffffffffffffffffffffffffffff1602179055508173ffffffffffffffffffffffffffffffffffffffff168173ffffffffffffffffffffffffffffffffffffffff167f8be0079c531659141344cd1fd0a4f28419497f9722a3daafe3b4186f6b6457e060405160405180910390a35050565b600080fd5b600073ffffffffffffffffffffffffffffffffffffffff82169050919050565b6000620002bc826200028f565b9050919050565b620002ce81620002af565b8114620002da57600080fd5b50565b600081519050620002ee81620002c3565b92915050565b6000602082840312156200030d576200030c6200028a565b5b60006200031d84828501620002dd565b91505092915050565b600081519050919050565b7f4e487b7100000000000000000000000000000000000000000000000000000000600052604160045260246000fd5b7f4e487b7100000000000000000000000000000000000000000000000000000000600052602260045260246000fd5b60006002820490506001821680620003a857607f821691505b602082108103620003be57620003bd62000360565b5b50919050565b60008190508160005260206000209050919050565b60006020601f8301049050919050565b600082821b905092915050565b600060088302620004287fffffffffffffffffffffffffffffffffffffffffffffffffffffffffffffffff82620003e9565b620004348683620003e9565b95508019841693508086168417925050509392505050565b6000819050919050565b6000819050919050565b6000620004816200047b62000475846200044c565b62000456565b6200044c565b9050919050565b6000819050919050565b6200049d8362000460565b620004b5620004ac8262000488565b848454620003f6565b825550505050565b600090565b620004cc620004bd565b620004d981848462000492565b505050565b5b818110156200050157620004f5600082620004c2565b600181019050620004df565b5050565b601f82111562000550576200051a81620003c4565b6200052584620003d9565b8101602085101562000535578190505b6200054d6200054485620003d9565b830182620004de565b50505b505050565b600082821c905092915050565b6000620005756000198460080262000555565b1980831691505092915050565b600062000590838362000562565b9150826002028217905092915050565b620005ab8262000326565b67ffffffffffffffff811115620005c757620005c662000331565b5b620005d382546200038f565b620005e082828562000505565b600060209050601f83116001811462000618576000841562000603578287015190505b6200060f858262000582565b8655506200067f565b601f1984166200062886620003c4565b60005b8281101562000652578489015182556001820191506020850194506020810190506200062b565b868310156200067257848901516200066e601f89168262000562565b8355505b6001600288020188555050505b505050505050565b6200069281620002af565b82525050565b6000602082019050620006af600083018462000687565b92915050565b612c0a80620006c56000396000f3fe608060405234801561001057600080fd5b50600436106101cf5760003560e01c80637944419511610104578063b0360618116100a2578063d82ceb8811610071578063d82ceb88146104ea578063dd62ed3e1461051a578063f2fde38b1461054a578063fa0cd4e014610566576101cf565b8063b036061814610488578063b88a802f146104b8578063c964ad45146104c2578063cb0981bc146104e0576101cf565b806395d89b41116100de57806395d89b41146104005780639b040b791461041e5780639cbec8431461043a578063a9059cbb14610458576101cf565b806379444195146103a85780638da5cb5b146103c65780638fb6c6f6146103e4576101cf565b806320de1b2311610171578063313ce5671161014b578063313ce567146103325780634d6836741461035057806370a082311461036e578063715018a61461039e576101cf565b806320de1b23146102c857806323b872dd146102e657806326a994ca14610316576101cf565b8063095ea7b3116101ad578063095ea7b31461022c5780630aa435331461025c578063117a5b901461027857806318160ddd146102aa576101cf565b806306fdde03146101d45780630700037d146101f257806307ab657314610222575b600080fd5b6101dc610596565b6040516101e99190611d89565b60405180910390f35b61020c60048036038101906102079190611e1d565b610628565b6040516102199190611e63565b60405180910390f35b61022a610640565b005b61024660048036038101906102419190611eaa565b610895565b6040516102539190611f05565b60405180910390f35b61027660048036038101906102719190611f20565b6108b8565b005b610292600480360381019061028d9190611f20565b6108ca565b6040516102a193929190611f5c565b60405180910390f35b6102b26109ac565b6040516102bf9190611e63565b60405180910390f35b6102d06109b6565b6040516102dd9190611ff9565b60405180910390f35b61030060048036038101906102fb9190612014565b6109dc565b60405161030d9190611f05565b60405180910390f35b610330600480360381019061032b91906120cc565b610a0b565b005b61033a610e84565b6040516103479190612135565b60405180910390f35b610358610e8d565b6040516103659190611e63565b60405180910390f35b61038860048036038101906103839190611e1d565b610e93565b6040516103959190611e63565b60405180910390f35b6103a6610edb565b005b6103b0610eef565b6040516103bd9190611e63565b60405180910390f35b6103ce610ef5565b6040516103db9190612150565b60405180910390f35b6103fe60048036038101906103f99190611f20565b610f1f565b005b610408610f31565b6040516104159190611d89565b60405180910390f35b61043860048036038101906104339190611f20565b610fc3565b005b610442610fd5565b60405161044f9190611d89565b60405180910390f35b610472600480360381019061046d9190611eaa565b6110a1565b60405161047f9190611f05565b60405180910390f35b6104a2600480360381019061049d9190611f20565b6110c4565b6040516104af9190612150565b60405180910390f35b6104c0611113565b005b6104ca611225565b6040516104d79190611e63565b60405180910390f35b6104e861122b565b005b61050460048036038101906104ff919061216b565b611438565b6040516105119190611f05565b60405180910390f35b610534600480360381019061052f91906121ab565b611467565b6040516105419190611e63565b60405180910390f35b610564600480360381019061055f9190611e1d565b6114ee565b005b610580600480360381019061057b9190611e1d565b611574565b60405161058d9190611e63565b60405180910390f35b6060600380546105a59061221a565b80601f01602080910402602001604051908101604052809291908181526020018280546105d19061221a565b801561061e5780601f106105f35761010080835404028352916020019161061e565b820191906000526020600020905b81548152906001019060200180831161060157829003601f168201915b5050505050905090565b600d6020528060005260406000206000915090505481565b61064861158c565b6000600160098054905061065c919061227a565b90506000806040516024016040516020818303038152906040527fdc25ec06000000000000000000000000000000000000000000000000000000007bffffffffffffffffffffffffffffffffffffffffffffffffffffffff19166020820180517bffffffffffffffffffffffffffffffffffffffffffffffffffffffff838183161783525050505090506000336040516020016106f99190612150565b604051602081830303815290604052610711906122f5565b9050600080600a60009054906101000a900473ffffffffffffffffffffffffffffffffffffffff1673ffffffffffffffffffffffffffffffffffffffff1663839f845784866040518363ffffffff1660e01b81526004016107739291906123b5565b6000604051808303816000875af1158015610792573d6000803e3d6000fd5b505050506040513d6000823e3d601f19601f820116820180604052508101906107bb9190612542565b9150915060008263ffffffff160361085457808060200190518101906107e191906125dc565b94506107ef85600654611613565b846009878154811061080457610803612609565b5b906000526020600020906004020160020160006101000a81548173ffffffffffffffffffffffffffffffffffffffff021916908373ffffffffffffffffffffffffffffffffffffffff1602179055505b7fd20660afad7d6ad1f618cb9d9d72248f980c64772f2db644705c8742d9d4e40f8686604051610885929190612638565b60405180910390a1505050505050565b6000806108a0611695565b90506108ad81858561169d565b600191505092915050565b6108c061158c565b8060068190555050565b600981815481106108da57600080fd5b90600052602060002090600402016000915090508060000180546108fd9061221a565b80601f01602080910402602001604051908101604052809291908181526020018280546109299061221a565b80156109765780601f1061094b57610100808354040283529160200191610976565b820191906000526020600020905b81548152906001019060200180831161095957829003601f168201915b5050505050908060010154908060020160009054906101000a900473ffffffffffffffffffffffffffffffffffffffff16905083565b6000600254905090565b600a60009054906101000a900473ffffffffffffffffffffffffffffffffffffffff1681565b6000806109e7611695565b90506109f48582856116af565b6109ff858585611743565b60019150509392505050565b60006001600980549050610a1f919061227a565b9050600b600082815260200190815260200160002060003373ffffffffffffffffffffffffffffffffffffffff1673ffffffffffffffffffffffffffffffffffffffff16815260200190815260200160002060009054906101000a900460ff1615610abf576040517f08c379a0000000000000000000000000000000000000000000000000000000008152600401610ab6906126ad565b60405180910390fd5b6001600b600083815260200190815260200160002060003373ffffffffffffffffffffffffffffffffffffffff1673ffffffffffffffffffffffffffffffffffffffff16815260200190815260200160002060006101000a81548160ff02191690831515021790555060098181548110610b3c57610b3b612609565b5b906000526020600020906004020160030160405180604001604052803373ffffffffffffffffffffffffffffffffffffffff16815260200185858080601f016020809104026020016040519081016040528093929190818152602001838380828437600081840152601f19601f82011690508083019250505050505050815250908060018154018082558091505060019003906000526020600020906002020160009091909190915060008201518160000160006101000a81548173ffffffffffffffffffffffffffffffffffffffff021916908373ffffffffffffffffffffffffffffffffffffffff1602179055506020820151816001019081610c419190612862565b5050506000811480610cb95750600b6000600183610c5f919061227a565b815260200190815260200160002060003373ffffffffffffffffffffffffffffffffffffffff1673ffffffffffffffffffffffffffffffffffffffff16815260200190815260200160002060009054906101000a900460ff165b15610dfd57600c60003373ffffffffffffffffffffffffffffffffffffffff1673ffffffffffffffffffffffffffffffffffffffff1681526020019081526020016000206000815480929190610d0e90612934565b91905055506007600c60003373ffffffffffffffffffffffffffffffffffffffff1673ffffffffffffffffffffffffffffffffffffffff1681526020019081526020016000205410610df857600854600d60003373ffffffffffffffffffffffffffffffffffffffff1673ffffffffffffffffffffffffffffffffffffffff1681526020019081526020016000206000828254610dab919061297c565b925050819055506000600c60003373ffffffffffffffffffffffffffffffffffffffff1673ffffffffffffffffffffffffffffffffffffffff168152602001908152602001600020819055505b610e43565b6000600c60003373ffffffffffffffffffffffffffffffffffffffff1673ffffffffffffffffffffffffffffffffffffffff168152602001908152602001600020819055505b807f7eace2b90e1958724bc732308ed5dedbe51c6cc66bb401896053a0fb0f995c84338585604051610e77939291906129ec565b60405180910390a2505050565b60006012905090565b60075481565b60008060008373ffffffffffffffffffffffffffffffffffffffff1673ffffffffffffffffffffffffffffffffffffffff168152602001908152602001600020549050919050565b610ee361158c565b610eed6000611837565b565b60085481565b6000600560009054906101000a900473ffffffffffffffffffffffffffffffffffffffff16905090565b610f2761158c565b8060078190555050565b606060048054610f409061221a565b80601f0160208091040260200160405190810160405280929190818152602001828054610f6c9061221a565b8015610fb95780601f10610f8e57610100808354040283529160200191610fb9565b820191906000526020600020905b815481529060010190602001808311610f9c57829003601f168201915b5050505050905090565b610fcb61158c565b8060088190555050565b606060006001600980549050610feb919061227a565b90506009818154811061100157611000612609565b5b9060005260206000209060040201600001805461101d9061221a565b80601f01602080910402602001604051908101604052809291908181526020018280546110499061221a565b80156110965780601f1061106b57610100808354040283529160200191611096565b820191906000526020600020905b81548152906001019060200180831161107957829003601f168201915b505050505091505090565b6000806110ac611695565b90506110b9818585611743565b600191505092915050565b6000600982815481106110da576110d9612609565b5b906000526020600020906004020160020160009054906101000a900473ffffffffffffffffffffffffffffffffffffffff169050919050565b6000600d60003373ffffffffffffffffffffffffffffffffffffffff1673ffffffffffffffffffffffffffffffffffffffff1681526020019081526020016000205490506000811161119a576040517f08c379a000000000000000000000000000000000000000000000000000000000815260040161119190612a6a565b60405180910390fd5b6000600d60003373ffffffffffffffffffffffffffffffffffffffff1673ffffffffffffffffffffffffffffffffffffffff168152602001908152602001600020819055506111e93382611613565b7f106f923f993c2149d49b4255ff723acafa1f2d94393f561d3eda32ae348f7241338260405161121a929190612a8a565b60405180910390a150565b60065481565b61123361158c565b606060006040516024016040516020818303038152906040527f4eaa708a000000000000000000000000000000000000000000000000000000007bffffffffffffffffffffffffffffffffffffffffffffffffffffffff19166020820180517bffffffffffffffffffffffffffffffffffffffffffffffffffffffff838183161783525050505090506000336040516020016112cf9190612150565b6040516020818303038152906040526112e7906122f5565b9050600080600a60009054906101000a900473ffffffffffffffffffffffffffffffffffffffff1673ffffffffffffffffffffffffffffffffffffffff1663839f845784866040518363ffffffff1660e01b81526004016113499291906123b5565b6000604051808303816000875af1158015611368573d6000803e3d6000fd5b505050506040513d6000823e3d601f19601f820116820180604052508101906113919190612542565b9150915060008263ffffffff16036113ba57808060200190518101906113b79190612b54565b94505b600060096001816001815401808255809150500390600052602060002090600402019050858160000190816113ef9190612862565b504281600101819055507f140b3c02b5e6e7603ee1f030db05e6f0353fd29f12847793e2a7404c2dedcc5e866040516114289190611d89565b60405180910390a1505050505050565b600b6020528160005260406000206020528060005260406000206000915091509054906101000a900460ff1681565b6000600160008473ffffffffffffffffffffffffffffffffffffffff1673ffffffffffffffffffffffffffffffffffffffff16815260200190815260200160002060008373ffffffffffffffffffffffffffffffffffffffff1673ffffffffffffffffffffffffffffffffffffffff16815260200190815260200160002054905092915050565b6114f661158c565b600073ffffffffffffffffffffffffffffffffffffffff168173ffffffffffffffffffffffffffffffffffffffff16036115685760006040517f1e4fbdf700000000000000000000000000000000000000000000000000000000815260040161155f9190612150565b60405180910390fd5b61157181611837565b50565b600c6020528060005260406000206000915090505481565b611594611695565b73ffffffffffffffffffffffffffffffffffffffff166115b2610ef5565b73ffffffffffffffffffffffffffffffffffffffff1614611611576115d5611695565b6040517f118cdaa70000000000000000000000000000000000000000000000000000000081526004016116089190612150565b60405180910390fd5b565b600073ffffffffffffffffffffffffffffffffffffffff168273ffffffffffffffffffffffffffffffffffffffff16036116855760006040517fec442f0500000000000000000000000000000000000000000000000000000000815260040161167c9190612150565b60405180910390fd5b611691600083836118fd565b5050565b600033905090565b6116aa8383836001611b22565b505050565b60006116bb8484611467565b90507fffffffffffffffffffffffffffffffffffffffffffffffffffffffffffffffff811461173d578181101561172d578281836040517ffb8f41b200000000000000000000000000000000000000000000000000000000815260040161172493929190612b9d565b60405180910390fd5b61173c84848484036000611b22565b5b50505050565b600073ffffffffffffffffffffffffffffffffffffffff168373ffffffffffffffffffffffffffffffffffffffff16036117b55760006040517f96c6fd1e0000000000000000000000000000000000000000000000000000000081526004016117ac9190612150565b60405180910390fd5b600073ffffffffffffffffffffffffffffffffffffffff168273ffffffffffffffffffffffffffffffffffffffff16036118275760006040517fec442f0500000000000000000000000000000000000000000000000000000000815260040161181e9190612150565b60405180910390fd5b6118328383836118fd565b505050565b6000600560009054906101000a900473ffffffffffffffffffffffffffffffffffffffff16905081600560006101000a81548173ffffffffffffffffffffffffffffffffffffffff021916908373ffffffffffffffffffffffffffffffffffffffff1602179055508173ffffffffffffffffffffffffffffffffffffffff168173ffffffffffffffffffffffffffffffffffffffff167f8be0079c531659141344cd1fd0a4f28419497f9722a3daafe3b4186f6b6457e060405160405180910390a35050565b600073ffffffffffffffffffffffffffffffffffffffff168373ffffffffffffffffffffffffffffffffffffffff160361194f578060026000828254611943919061297c565b92505081905550611a22565b60008060008573ffffffffffffffffffffffffffffffffffffffff1673ffffffffffffffffffffffffffffffffffffffff168152602001908152602001600020549050818110156119db578381836040517fe450d38c0000000000000000000000000000000000000000000000000000000081526004016119d293929190612b9d565b60405180910390fd5b8181036000808673ffffffffffffffffffffffffffffffffffffffff1673ffffffffffffffffffffffffffffffffffffffff16815260200190815260200160002081905550505b600073ffffffffffffffffffffffffffffffffffffffff168273ffffffffffffffffffffffffffffffffffffffff1603611a6b5780600260008282540392505081905550611ab8565b806000808473ffffffffffffffffffffffffffffffffffffffff1673ffffffffffffffffffffffffffffffffffffffff168152602001908152602001600020600082825401925050819055505b8173ffffffffffffffffffffffffffffffffffffffff168373ffffffffffffffffffffffffffffffffffffffff167fddf252ad1be2c89b69c2b068fc378daa952ba7f163c4a11628f55a4df523b3ef83604051611b159190611e63565b60405180910390a3505050565b600073ffffffffffffffffffffffffffffffffffffffff168473ffffffffffffffffffffffffffffffffffffffff1603611b945760006040517fe602df05000000000000000000000000000000000000000000000000000000008152600401611b8b9190612150565b60405180910390fd5b600073ffffffffffffffffffffffffffffffffffffffff168373ffffffffffffffffffffffffffffffffffffffff1603611c065760006040517f94280d62000000000000000000000000000000000000000000000000000000008152600401611bfd9190612150565b60405180910390fd5b81600160008673ffffffffffffffffffffffffffffffffffffffff1673ffffffffffffffffffffffffffffffffffffffff16815260200190815260200160002060008573ffffffffffffffffffffffffffffffffffffffff1673ffffffffffffffffffffffffffffffffffffffff168152602001908152602001600020819055508015611cf3578273ffffffffffffffffffffffffffffffffffffffff168473ffffffffffffffffffffffffffffffffffffffff167f8c5be1e5ebec7d5bd14f71427d1e84f3dd0314c0f7b2291e5b200ac8c7c3b92584604051611cea9190611e63565b60405180910390a35b50505050565b600081519050919050565b600082825260208201905092915050565b60005b83811015611d33578082015181840152602081019050611d18565b60008484015250505050565b6000601f19601f8301169050919050565b6000611d5b82611cf9565b611d658185611d04565b9350611d75818560208601611d15565b611d7e81611d3f565b840191505092915050565b60006020820190508181036000830152611da38184611d50565b905092915050565b6000604051905090565b600080fd5b600080fd5b600073ffffffffffffffffffffffffffffffffffffffff82169050919050565b6000611dea82611dbf565b9050919050565b611dfa81611ddf565b8114611e0557600080fd5b50565b600081359050611e1781611df1565b92915050565b600060208284031215611e3357611e32611db5565b5b6000611e4184828501611e08565b91505092915050565b6000819050919050565b611e5d81611e4a565b82525050565b6000602082019050611e786000830184611e54565b92915050565b611e8781611e4a565b8114611e9257600080fd5b50565b600081359050611ea481611e7e565b92915050565b60008060408385031215611ec157611ec0611db5565b5b6000611ecf85828601611e08565b9250506020611ee085828601611e95565b9150509250929050565b60008115159050919050565b611eff81611eea565b82525050565b6000602082019050611f1a6000830184611ef6565b92915050565b600060208284031215611f3657611f35611db5565b5b6000611f4484828501611e95565b91505092915050565b611f5681611ddf565b82525050565b60006060820190508181036000830152611f768186611d50565b9050611f856020830185611e54565b611f926040830184611f4d565b949350505050565b6000819050919050565b6000611fbf611fba611fb584611dbf565b611f9a565b611dbf565b9050919050565b6000611fd182611fa4565b9050919050565b6000611fe382611fc6565b9050919050565b611ff381611fd8565b82525050565b600060208201905061200e6000830184611fea565b92915050565b60008060006060848603121561202d5761202c611db5565b5b600061203b86828701611e08565b935050602061204c86828701611e08565b925050604061205d86828701611e95565b9150509250925092565b600080fd5b600080fd5b600080fd5b60008083601f84011261208c5761208b612067565b5b8235905067ffffffffffffffff8111156120a9576120a861206c565b5b6020830191508360018202830111156120c5576120c4612071565b5b9250929050565b600080602083850312156120e3576120e2611db5565b5b600083013567ffffffffffffffff81111561210157612100611dba565b5b61210d85828601612076565b92509250509250929050565b600060ff82169050919050565b61212f81612119565b82525050565b600060208201905061214a6000830184612126565b92915050565b60006020820190506121656000830184611f4d565b92915050565b6000806040838503121561218257612181611db5565b5b600061219085828601611e95565b92505060206121a185828601611e08565b9150509250929050565b600080604083850312156121c2576121c1611db5565b5b60006121d085828601611e08565b92505060206121e185828601611e08565b9150509250929050565b7f4e487b7100000000000000000000000000000000000000000000000000000000600052602260045260246000fd5b6000600282049050600182168061223257607f821691505b602082108103612245576122446121eb565b5b50919050565b7f4e487b7100000000000000000000000000000000000000000000000000000000600052601160045260246000fd5b600061228582611e4a565b915061229083611e4a565b92508282039050818111156122a8576122a761224b565b5b92915050565b600081519050919050565b6000819050602082019050919050565b6000819050919050565b60006122df82516122c9565b80915050919050565b600082821b905092915050565b6000612300826122ae565b8261230a846122b9565b9050612315816122d3565b92506020821015612355576123507fffffffffffffffffffffffffffffffffffffffffffffffffffffffffffffffff836020036008026122e8565b831692505b5050919050565b612365816122c9565b82525050565b600082825260208201905092915050565b6000612387826122ae565b612391818561236b565b93506123a1818560208601611d15565b6123aa81611d3f565b840191505092915050565b60006040820190506123ca600083018561235c565b81810360208301526123dc818461237c565b90509392505050565b600063ffffffff82169050919050565b6123fe816123e5565b811461240957600080fd5b50565b60008151905061241b816123f5565b92915050565b600080fd5b7f4e487b7100000000000000000000000000000000000000000000000000000000600052604160045260246000fd5b61245e82611d3f565b810181811067ffffffffffffffff8211171561247d5761247c612426565b5b80604052505050565b6000612490611dab565b905061249c8282612455565b919050565b600067ffffffffffffffff8211156124bc576124bb612426565b5b6124c582611d3f565b9050602081019050919050565b60006124e56124e0846124a1565b612486565b90508281526020810184848401111561250157612500612421565b5b61250c848285611d15565b509392505050565b600082601f83011261252957612528612067565b5b81516125398482602086016124d2565b91505092915050565b6000806040838503121561255957612558611db5565b5b60006125678582860161240c565b925050602083015167ffffffffffffffff81111561258857612587611dba565b5b61259485828601612514565b9150509250929050565b60006125a982611dbf565b9050919050565b6125b98161259e565b81146125c457600080fd5b50565b6000815190506125d6816125b0565b92915050565b6000602082840312156125f2576125f1611db5565b5b6000612600848285016125c7565b91505092915050565b7f4e487b7100000000000000000000000000000000000000000000000000000000600052603260045260246000fd5b600060408201905061264d6000830185611e54565b61265a6020830184611f4d565b9392505050565b7f596f75206861766520616c726561647920706c6179656420746f646179000000600082015250565b6000612697601d83611d04565b91506126a282612661565b602082019050919050565b600060208201905081810360008301526126c68161268a565b9050919050565b60008190508160005260206000209050919050565b60006020601f8301049050919050565b6000600883026127227fffffffffffffffffffffffffffffffffffffffffffffffffffffffffffffffff826122e8565b61272c86836122e8565b95508019841693508086168417925050509392505050565b600061275f61275a61275584611e4a565b611f9a565b611e4a565b9050919050565b6000819050919050565b61277983612744565b61278d61278582612766565b8484546126f2565b825550505050565b600090565b6127a2612795565b6127ad818484612770565b505050565b5b818110156127d1576127c660008261279a565b6001810190506127b3565b5050565b601f821115612816576127e7816126cd565b6127f0846126e2565b810160208510156127ff578190505b61281361280b856126e2565b8301826127b2565b50505b505050565b600082821c905092915050565b60006128396000198460080261281b565b1980831691505092915050565b60006128528383612828565b9150826002028217905092915050565b61286b82611cf9565b67ffffffffffffffff81111561288457612883612426565b5b61288e825461221a565b6128998282856127d5565b600060209050601f8311600181146128cc57600084156128ba578287015190505b6128c48582612846565b86555061292c565b601f1984166128da866126cd565b60005b82811015612902578489015182556001820191506020850194506020810190506128dd565b8683101561291f578489015161291b601f891682612828565b8355505b6001600288020188555050505b505050505050565b600061293f82611e4a565b91507fffffffffffffffffffffffffffffffffffffffffffffffffffffffffffffffff82036129715761297061224b565b5b600182019050919050565b600061298782611e4a565b915061299283611e4a565b92508282019050808211156129aa576129a961224b565b5b92915050565b82818337600083830152505050565b60006129cb8385611d04565b93506129d88385846129b0565b6129e183611d3f565b840190509392505050565b6000604082019050612a016000830186611f4d565b8181036020830152612a148184866129bf565b9050949350505050565b7f4e6f207265776172647320617661696c61626c65000000000000000000000000600082015250565b6000612a54601483611d04565b9150612a5f82612a1e565b602082019050919050565b60006020820190508181036000830152612a8381612a47565b9050919050565b6000604082019050612a9f6000830185611f4d565b612aac6020830184611e54565b9392505050565b600067ffffffffffffffff821115612ace57612acd612426565b5b612ad782611d3f565b9050602081019050919050565b6000612af7612af284612ab3565b612486565b905082815260208101848484011115612b1357612b12612421565b5b612b1e848285611d15565b509392505050565b600082601f830112612b3b57612b3a612067565b5b8151612b4b848260208601612ae4565b91505092915050565b600060208284031215612b6a57612b69611db5565b5b600082015167ffffffffffffffff811115612b8857612b87611dba565b5b612b9484828501612b26565b91505092915050565b6000606082019050612bb26000830186611f4d565b612bbf6020830185611e54565b612bcc6040830184611e54565b94935050505056fea26469706673582212204a8f9f3062677ae12242689f9d7d2a08ed1aecbdc57a2b273f72bad6b5ab7d9764736f6c63430008180033",
  "devdoc": {
    "details": "ERC20 token with game logic for rewards.",
    "errors": {
      "ERC20InsufficientAllowance(address,uint256,uint256)": [
        {
          "details": "Indicates a failure with the `spender`s `allowance`. Used in transfers.",
          "params": {
            "allowance": "Amount of tokens a `spender` is allowed to operate with.",
            "needed": "Minimum amount required to perform a transfer.",
            "spender": "Address that may be allowed to operate on tokens without being their owner."
          }
        }
      ],
      "ERC20InsufficientBalance(address,uint256,uint256)": [
        {
          "details": "Indicates an error related to the current `balance` of a `sender`. Used in transfers.",
          "params": {
            "balance": "Current balance for the interacting account.",
            "needed": "Minimum amount required to perform a transfer.",
            "sender": "Address whose tokens are being transferred."
          }
        }
      ],
      "ERC20InvalidApprover(address)": [
        {
          "details": "Indicates a failure with the `approver` of a token to be approved. Used in approvals.",
          "params": {
            "approver": "Address initiating an approval operation."
          }
        }
      ],
      "ERC20InvalidReceiver(address)": [
        {
          "details": "Indicates a failure with the token `receiver`. Used in transfers.",
          "params": {
            "receiver": "Address to which tokens are being transferred."
          }
        }
      ],
      "ERC20InvalidSender(address)": [
        {
          "details": "Indicates a failure with the token `sender`. Used in transfers.",
          "params": {
            "sender": "Address whose tokens are being transferred."
          }
        }
      ],
      "ERC20InvalidSpender(address)": [
        {
          "details": "Indicates a failure with the `spender` to be approved. Used in approvals.",
          "params": {
            "spender": "Address that may be allowed to operate on tokens without being their owner."
          }
        }
      ],
      "OwnableInvalidOwner(address)": [
        {
          "details": "The owner is not a valid owner account. (eg. `address(0)`)"
        }
      ],
      "OwnableUnauthorizedAccount(address)": [
        {
          "details": "The caller account is not authorized to perform an operation."
        }
      ]
    },
    "events": {
      "Approval(address,address,uint256)": {
        "details": "Emitted when the allowance of a `spender` for an `owner` is set by a call to {approve}. `value` is the new allowance."
      },
      "Transfer(address,address,uint256)": {
        "details": "Emitted when `value` tokens are moved from one account (`from`) to another (`to`). Note that `value` may be zero."
      }
    },
    "kind": "dev",
    "methods": {
      "allowance(address,address)": {
        "details": "See {IERC20-allowance}."
      },
      "approve(address,uint256)": {
        "details": "See {IERC20-approve}. NOTE: If `value` is the maximum `uint256`, the allowance is not updated on `transferFrom`. This is semantically equivalent to an infinite approval. Requirements: - `spender` cannot be the zero address."
      },
      "balanceOf(address)": {
        "details": "See {IERC20-balanceOf}."
      },
      "decimals()": {
        "details": "Returns the number of decimals used to get its user representation. For example, if `decimals` equals `2`, a balance of `505` tokens should be displayed to a user as `5.05` (`505 / 10 ** 2`). Tokens usually opt for a value of 18, imitating the relationship between Ether and Wei. This is the default value returned by this function, unless it's overridden. NOTE: This information is only used for _display_ purposes: it in no way affects any of the arithmetic of the contract, including {IERC20-balanceOf} and {IERC20-transfer}."
      },
      "name()": {
        "details": "Returns the name of the token."
      },
      "owner()": {
        "details": "Returns the address of the current owner."
      },
      "renounceOwnership()": {
        "details": "Leaves the contract without owner. It will not be possible to call `onlyOwner` functions. Can only be called by the current owner. NOTE: Renouncing ownership will leave the contract without an owner, thereby disabling any functionality that is only available to the owner."
      },
      "setConsecutiveReward(uint256)": {
        "params": {
          "_newConsecutiveReward": "New consecutive games reward amount"
        }
      },
      "setDailyReward(uint256)": {
        "params": {
          "_newDailyReward": "New daily reward amount"
        }
      },
      "setReferralReward(uint256)": {
        "params": {
          "_newReferralReward": "New referral reward amount"
        }
      },
      "submitByPlayer(string)": {
        "params": {
          "answer": "Player's answer"
        }
      },
      "symbol()": {
        "details": "Returns the symbol of the token, usually a shorter version of the name."
      },
      "totalSupply()": {
        "details": "See {IERC20-totalSupply}."
      },
      "transfer(address,uint256)": {
        "details": "See {IERC20-transfer}. Requirements: - `to` cannot be the zero address. - the caller must have a balance of at least `value`."
      },
      "transferFrom(address,address,uint256)": {
        "details": "See {IERC20-transferFrom}. Emits an {Approval} event indicating the updated allowance. This is not required by the EIP. See the note at the beginning of {ERC20}. NOTE: Does not update the allowance if the current allowance is the maximum `uint256`. Requirements: - `from` and `to` cannot be the zero address. - `from` must have a balance of at least `value`. - the caller must have allowance for ``from``'s tokens of at least `value`."
      },
      "transferOwnership(address)": {
        "details": "Transfers ownership of the contract to a new account (`newOwner`). Can only be called by the current owner."
      }
    },
    "title": "PresiSimToken",
    "version": 1
  },
  "userdoc": {
    "kind": "user",
    "methods": {
      "claimReward()": {
        "notice": "Allows a player to claim their accumulated rewards"
      },
      "getDailyQuestion()": {
        "notice": "Fetches the daily question from the backend"
      },
      "setConsecutiveReward(uint256)": {
        "notice": "Sets a new consecutive games reward"
      },
      "setDailyReward(uint256)": {
        "notice": "Sets a new daily reward"
      },
      "setReferralReward(uint256)": {
        "notice": "Sets a new referral reward"
      },
      "submitByPlayer(string)": {
        "notice": "Allows a player to submit their answer and handle referrals"
      },
      "submitResults()": {
        "notice": "Submits the game results to the backend"
      }
    },
    "version": 1
  },
  "storageLayout": {
    "storage": [
      {
        "astId": 1050,
        "contract": "contracts/PresiSimToken.sol:PresiSimToken",
        "label": "_balances",
        "offset": 0,
        "slot": "0",
        "type": "t_mapping(t_address,t_uint256)"
      },
      {
        "astId": 1056,
        "contract": "contracts/PresiSimToken.sol:PresiSimToken",
        "label": "_allowances",
        "offset": 0,
        "slot": "1",
        "type": "t_mapping(t_address,t_mapping(t_address,t_uint256))"
      },
      {
        "astId": 1058,
        "contract": "contracts/PresiSimToken.sol:PresiSimToken",
        "label": "_totalSupply",
        "offset": 0,
        "slot": "2",
        "type": "t_uint256"
      },
      {
        "astId": 1060,
        "contract": "contracts/PresiSimToken.sol:PresiSimToken",
        "label": "_name",
        "offset": 0,
        "slot": "3",
        "type": "t_string_storage"
      },
      {
        "astId": 1062,
        "contract": "contracts/PresiSimToken.sol:PresiSimToken",
        "label": "_symbol",
        "offset": 0,
        "slot": "4",
        "type": "t_string_storage"
      },
      {
        "astId": 8,
        "contract": "contracts/PresiSimToken.sol:PresiSimToken",
        "label": "_owner",
        "offset": 0,
        "slot": "5",
        "type": "t_address"
      },
      {
        "astId": 3893,
        "contract": "contracts/PresiSimToken.sol:PresiSimToken",
        "label": "dailyReward",
        "offset": 0,
        "slot": "6",
        "type": "t_uint256"
      },
      {
        "astId": 3901,
        "contract": "contracts/PresiSimToken.sol:PresiSimToken",
        "label": "referralReward",
        "offset": 0,
        "slot": "7",
        "type": "t_uint256"
      },
      {
        "astId": 3909,
        "contract": "contracts/PresiSimToken.sol:PresiSimToken",
        "label": "consecutiveReward",
        "offset": 0,
        "slot": "8",
        "type": "t_uint256"
      },
      {
        "astId": 3929,
        "contract": "contracts/PresiSimToken.sol:PresiSimToken",
        "label": "games",
        "offset": 0,
        "slot": "9",
        "type": "t_array(t_struct(Game)3925_storage)dyn_storage"
      },
      {
        "astId": 3932,
        "contract": "contracts/PresiSimToken.sol:PresiSimToken",
        "label": "HA",
        "offset": 0,
        "slot": "10",
        "type": "t_contract(HybridAccount)5747"
      },
      {
        "astId": 3938,
        "contract": "contracts/PresiSimToken.sol:PresiSimToken",
        "label": "hasPlayed",
        "offset": 0,
        "slot": "11",
        "type": "t_mapping(t_uint256,t_mapping(t_address,t_bool))"
      },
      {
        "astId": 3942,
        "contract": "contracts/PresiSimToken.sol:PresiSimToken",
        "label": "consecutiveGamesPlayed",
        "offset": 0,
        "slot": "12",
        "type": "t_mapping(t_address,t_uint256)"
      },
      {
        "astId": 3946,
        "contract": "contracts/PresiSimToken.sol:PresiSimToken",
        "label": "rewards",
        "offset": 0,
        "slot": "13",
        "type": "t_mapping(t_address,t_uint256)"
      }
    ],
    "types": {
      "t_address": {
        "encoding": "inplace",
        "label": "address",
        "numberOfBytes": "20"
      },
      "t_array(t_struct(Game)3925_storage)dyn_storage": {
        "base": "t_struct(Game)3925_storage",
        "encoding": "dynamic_array",
        "label": "struct PresiSimToken.Game[]",
        "numberOfBytes": "32"
      },
      "t_array(t_struct(GameAnswer)3914_storage)dyn_storage": {
        "base": "t_struct(GameAnswer)3914_storage",
        "encoding": "dynamic_array",
        "label": "struct PresiSimToken.GameAnswer[]",
        "numberOfBytes": "32"
      },
      "t_bool": {
        "encoding": "inplace",
        "label": "bool",
        "numberOfBytes": "1"
      },
      "t_contract(HybridAccount)5747": {
        "encoding": "inplace",
        "label": "contract HybridAccount",
        "numberOfBytes": "20"
      },
      "t_mapping(t_address,t_bool)": {
        "encoding": "mapping",
        "key": "t_address",
        "label": "mapping(address => bool)",
        "numberOfBytes": "32",
        "value": "t_bool"
      },
      "t_mapping(t_address,t_mapping(t_address,t_uint256))": {
        "encoding": "mapping",
        "key": "t_address",
        "label": "mapping(address => mapping(address => uint256))",
        "numberOfBytes": "32",
        "value": "t_mapping(t_address,t_uint256)"
      },
      "t_mapping(t_address,t_uint256)": {
        "encoding": "mapping",
        "key": "t_address",
        "label": "mapping(address => uint256)",
        "numberOfBytes": "32",
        "value": "t_uint256"
      },
      "t_mapping(t_uint256,t_mapping(t_address,t_bool))": {
        "encoding": "mapping",
        "key": "t_uint256",
        "label": "mapping(uint256 => mapping(address => bool))",
        "numberOfBytes": "32",
        "value": "t_mapping(t_address,t_bool)"
      },
      "t_string_storage": {
        "encoding": "bytes",
        "label": "string",
        "numberOfBytes": "32"
      },
      "t_struct(Game)3925_storage": {
        "encoding": "inplace",
        "label": "struct PresiSimToken.Game",
        "members": [
          {
            "astId": 3916,
            "contract": "contracts/PresiSimToken.sol:PresiSimToken",
            "label": "question",
            "offset": 0,
            "slot": "0",
            "type": "t_string_storage"
          },
          {
            "astId": 3918,
            "contract": "contracts/PresiSimToken.sol:PresiSimToken",
            "label": "timeOfFetch",
            "offset": 0,
            "slot": "1",
            "type": "t_uint256"
          },
          {
            "astId": 3920,
            "contract": "contracts/PresiSimToken.sol:PresiSimToken",
            "label": "winner",
            "offset": 0,
            "slot": "2",
            "type": "t_address"
          },
          {
            "astId": 3924,
            "contract": "contracts/PresiSimToken.sol:PresiSimToken",
            "label": "answers",
            "offset": 0,
            "slot": "3",
            "type": "t_array(t_struct(GameAnswer)3914_storage)dyn_storage"
          }
        ],
        "numberOfBytes": "128"
      },
      "t_struct(GameAnswer)3914_storage": {
        "encoding": "inplace",
        "label": "struct PresiSimToken.GameAnswer",
        "members": [
          {
            "astId": 3911,
            "contract": "contracts/PresiSimToken.sol:PresiSimToken",
            "label": "user",
            "offset": 0,
            "slot": "0",
            "type": "t_address"
          },
          {
            "astId": 3913,
            "contract": "contracts/PresiSimToken.sol:PresiSimToken",
            "label": "answer",
            "offset": 0,
            "slot": "1",
            "type": "t_string_storage"
          }
        ],
        "numberOfBytes": "64"
      },
      "t_uint256": {
        "encoding": "inplace",
        "label": "uint256",
        "numberOfBytes": "32"
      }
    }
  }
}