{
  "address": "0xD64B48d895AeA61488603b3a76E0Edb955466355",
  "abi": [
    {
      "inputs": [
        {
          "internalType": "address",
          "name": "_demoAddr",
          "type": "address"
        }
      ],
      "stateMutability": "nonpayable",
      "type": "constructor"
    },
    {
      "inputs": [
        {
          "internalType": "address",
          "name": "spender",
          "type": "address"
        },
        {
          "internalType": "uint256",
          "name": "allowance",
          "type": "uint256"
        },
        {
          "internalType": "uint256",
          "name": "needed",
          "type": "uint256"
        }
      ],
      "name": "ERC20InsufficientAllowance",
      "type": "error"
    },
    {
      "inputs": [
        {
          "internalType": "address",
          "name": "sender",
          "type": "address"
        },
        {
          "internalType": "uint256",
          "name": "balance",
          "type": "uint256"
        },
        {
          "internalType": "uint256",
          "name": "needed",
          "type": "uint256"
        }
      ],
      "name": "ERC20InsufficientBalance",
      "type": "error"
    },
    {
      "inputs": [
        {
          "internalType": "address",
          "name": "approver",
          "type": "address"
        }
      ],
      "name": "ERC20InvalidApprover",
      "type": "error"
    },
    {
      "inputs": [
        {
          "internalType": "address",
          "name": "receiver",
          "type": "address"
        }
      ],
      "name": "ERC20InvalidReceiver",
      "type": "error"
    },
    {
      "inputs": [
        {
          "internalType": "address",
          "name": "sender",
          "type": "address"
        }
      ],
      "name": "ERC20InvalidSender",
      "type": "error"
    },
    {
      "inputs": [
        {
          "internalType": "address",
          "name": "spender",
          "type": "address"
        }
      ],
      "name": "ERC20InvalidSpender",
      "type": "error"
    },
    {
      "inputs": [
        {
          "internalType": "address",
          "name": "owner",
          "type": "address"
        }
      ],
      "name": "OwnableInvalidOwner",
      "type": "error"
    },
    {
      "inputs": [
        {
          "internalType": "address",
          "name": "account",
          "type": "address"
        }
      ],
      "name": "OwnableUnauthorizedAccount",
      "type": "error"
    },
    {
      "anonymous": false,
      "inputs": [
        {
          "indexed": true,
          "internalType": "address",
          "name": "owner",
          "type": "address"
        },
        {
          "indexed": true,
          "internalType": "address",
          "name": "spender",
          "type": "address"
        },
        {
          "indexed": false,
          "internalType": "uint256",
          "name": "value",
          "type": "uint256"
        }
      ],
      "name": "Approval",
      "type": "event"
    },
    {
      "anonymous": false,
      "inputs": [
        {
          "indexed": false,
          "internalType": "string",
          "name": "question",
          "type": "string"
        }
      ],
      "name": "DailyQuestionUpdated",
      "type": "event"
    },
    {
      "anonymous": false,
      "inputs": [
        {
          "indexed": false,
          "internalType": "uint256",
          "name": "gameID",
          "type": "uint256"
        },
        {
          "indexed": false,
          "internalType": "address",
          "name": "winner",
          "type": "address"
        }
      ],
      "name": "GameResultsSubmitted",
      "type": "event"
    },
    {
      "anonymous": false,
      "inputs": [
        {
          "indexed": false,
          "internalType": "uint32",
          "name": "err",
          "type": "uint32"
        }
      ],
      "name": "HCError",
      "type": "event"
    },
    {
      "anonymous": false,
      "inputs": [
        {
          "indexed": true,
          "internalType": "address",
          "name": "previousOwner",
          "type": "address"
        },
        {
          "indexed": true,
          "internalType": "address",
          "name": "newOwner",
          "type": "address"
        }
      ],
      "name": "OwnershipTransferred",
      "type": "event"
    },
    {
      "anonymous": false,
      "inputs": [
        {
          "indexed": true,
          "internalType": "uint256",
          "name": "gameID",
          "type": "uint256"
        },
        {
          "indexed": false,
          "internalType": "address",
          "name": "player",
          "type": "address"
        },
        {
          "indexed": false,
          "internalType": "string",
          "name": "answer",
          "type": "string"
        }
      ],
      "name": "PlayerSubmittedAnswer",
      "type": "event"
    },
    {
      "anonymous": false,
      "inputs": [
        {
          "indexed": false,
          "internalType": "address",
          "name": "user",
          "type": "address"
        },
        {
          "indexed": false,
          "internalType": "uint256",
          "name": "amount",
          "type": "uint256"
        }
      ],
      "name": "RewardClaimed",
      "type": "event"
    },
    {
      "anonymous": false,
      "inputs": [
        {
          "indexed": true,
          "internalType": "address",
          "name": "from",
          "type": "address"
        },
        {
          "indexed": true,
          "internalType": "address",
          "name": "to",
          "type": "address"
        },
        {
          "indexed": false,
          "internalType": "uint256",
          "name": "value",
          "type": "uint256"
        }
      ],
      "name": "Transfer",
      "type": "event"
    },
    {
      "inputs": [],
      "name": "HA",
      "outputs": [
        {
          "internalType": "contract HybridAccount",
          "name": "",
          "type": "address"
        }
      ],
      "stateMutability": "view",
      "type": "function"
    },
    {
      "inputs": [
        {
          "internalType": "address",
          "name": "owner",
          "type": "address"
        },
        {
          "internalType": "address",
          "name": "spender",
          "type": "address"
        }
      ],
      "name": "allowance",
      "outputs": [
        {
          "internalType": "uint256",
          "name": "",
          "type": "uint256"
        }
      ],
      "stateMutability": "view",
      "type": "function"
    },
    {
      "inputs": [
        {
          "internalType": "uint256",
          "name": "",
          "type": "uint256"
        },
        {
          "internalType": "address",
          "name": "",
          "type": "address"
        }
      ],
      "name": "answers",
      "outputs": [
        {
          "internalType": "string",
          "name": "",
          "type": "string"
        }
      ],
      "stateMutability": "view",
      "type": "function"
    },
    {
      "inputs": [
        {
          "internalType": "address",
          "name": "spender",
          "type": "address"
        },
        {
          "internalType": "uint256",
          "name": "value",
          "type": "uint256"
        }
      ],
      "name": "approve",
      "outputs": [
        {
          "internalType": "bool",
          "name": "",
          "type": "bool"
        }
      ],
      "stateMutability": "nonpayable",
      "type": "function"
    },
    {
      "inputs": [
        {
          "internalType": "address",
          "name": "account",
          "type": "address"
        }
      ],
      "name": "balanceOf",
      "outputs": [
        {
          "internalType": "uint256",
          "name": "",
          "type": "uint256"
        }
      ],
      "stateMutability": "view",
      "type": "function"
    },
    {
      "inputs": [],
      "name": "claimReward",
      "outputs": [],
      "stateMutability": "nonpayable",
      "type": "function"
    },
    {
      "inputs": [
        {
          "internalType": "address",
          "name": "",
          "type": "address"
        }
      ],
      "name": "consecutiveGamesPlayed",
      "outputs": [
        {
          "internalType": "uint256",
          "name": "",
          "type": "uint256"
        }
      ],
      "stateMutability": "view",
      "type": "function"
    },
    {
      "inputs": [],
      "name": "consecutiveReward",
      "outputs": [
        {
          "internalType": "uint256",
          "name": "",
          "type": "uint256"
        }
      ],
      "stateMutability": "view",
      "type": "function"
    },
    {
      "inputs": [],
      "name": "currentGameID",
      "outputs": [
        {
          "internalType": "uint256",
          "name": "",
          "type": "uint256"
        }
      ],
      "stateMutability": "view",
      "type": "function"
    },
    {
      "inputs": [],
      "name": "currentQuestion",
      "outputs": [
        {
          "internalType": "string",
          "name": "",
          "type": "string"
        }
      ],
      "stateMutability": "view",
      "type": "function"
    },
    {
      "inputs": [],
      "name": "dailyReward",
      "outputs": [
        {
          "internalType": "uint256",
          "name": "",
          "type": "uint256"
        }
      ],
      "stateMutability": "view",
      "type": "function"
    },
    {
      "inputs": [],
      "name": "decimals",
      "outputs": [
        {
          "internalType": "uint8",
          "name": "",
          "type": "uint8"
        }
      ],
      "stateMutability": "view",
      "type": "function"
    },
    {
      "inputs": [
        {
          "internalType": "uint256",
          "name": "",
          "type": "uint256"
        }
      ],
      "name": "games",
      "outputs": [
        {
          "internalType": "string",
          "name": "question",
          "type": "string"
        },
        {
          "internalType": "uint256",
          "name": "timeOfFetch",
          "type": "uint256"
        },
        {
          "internalType": "address",
          "name": "winner",
          "type": "address"
        }
      ],
      "stateMutability": "view",
      "type": "function"
    },
    {
      "inputs": [],
      "name": "getCurrentQuesiton",
      "outputs": [
        {
          "internalType": "string",
          "name": "",
          "type": "string"
        }
      ],
      "stateMutability": "view",
      "type": "function"
    },
    {
      "inputs": [],
      "name": "getDailyQuestion",
      "outputs": [],
      "stateMutability": "nonpayable",
      "type": "function"
    },
    {
      "inputs": [
        {
          "internalType": "uint256",
          "name": "gameID",
          "type": "uint256"
        }
      ],
      "name": "getWinnerByGameID",
      "outputs": [
        {
          "internalType": "address",
          "name": "",
          "type": "address"
        }
      ],
      "stateMutability": "view",
      "type": "function"
    },
    {
      "inputs": [
        {
          "internalType": "uint256",
          "name": "",
          "type": "uint256"
        },
        {
          "internalType": "address",
          "name": "",
          "type": "address"
        }
      ],
      "name": "hasPlayed",
      "outputs": [
        {
          "internalType": "bool",
          "name": "",
          "type": "bool"
        }
      ],
      "stateMutability": "view",
      "type": "function"
    },
    {
      "inputs": [],
      "name": "name",
      "outputs": [
        {
          "internalType": "string",
          "name": "",
          "type": "string"
        }
      ],
      "stateMutability": "view",
      "type": "function"
    },
    {
      "inputs": [],
      "name": "owner",
      "outputs": [
        {
          "internalType": "address",
          "name": "",
          "type": "address"
        }
      ],
      "stateMutability": "view",
      "type": "function"
    },
    {
      "inputs": [],
      "name": "referralReward",
      "outputs": [
        {
          "internalType": "uint256",
          "name": "",
          "type": "uint256"
        }
      ],
      "stateMutability": "view",
      "type": "function"
    },
    {
      "inputs": [],
      "name": "renounceOwnership",
      "outputs": [],
      "stateMutability": "nonpayable",
      "type": "function"
    },
    {
      "inputs": [
        {
          "internalType": "address",
          "name": "",
          "type": "address"
        }
      ],
      "name": "rewards",
      "outputs": [
        {
          "internalType": "uint256",
          "name": "",
          "type": "uint256"
        }
      ],
      "stateMutability": "view",
      "type": "function"
    },
    {
      "inputs": [
        {
          "internalType": "uint256",
          "name": "_newConsecutiveReward",
          "type": "uint256"
        }
      ],
      "name": "setConsecutiveReward",
      "outputs": [],
      "stateMutability": "nonpayable",
      "type": "function"
    },
    {
      "inputs": [
        {
          "internalType": "uint256",
          "name": "_newDailyReward",
          "type": "uint256"
        }
      ],
      "name": "setDailyReward",
      "outputs": [],
      "stateMutability": "nonpayable",
      "type": "function"
    },
    {
      "inputs": [
        {
          "internalType": "uint256",
          "name": "_newReferralReward",
          "type": "uint256"
        }
      ],
      "name": "setReferralReward",
      "outputs": [],
      "stateMutability": "nonpayable",
      "type": "function"
    },
    {
      "inputs": [
        {
          "internalType": "string",
          "name": "answer",
          "type": "string"
        }
      ],
      "name": "submitByPlayer",
      "outputs": [],
      "stateMutability": "nonpayable",
      "type": "function"
    },
    {
      "inputs": [],
      "name": "submitResults",
      "outputs": [],
      "stateMutability": "nonpayable",
      "type": "function"
    },
    {
      "inputs": [],
      "name": "symbol",
      "outputs": [
        {
          "internalType": "string",
          "name": "",
          "type": "string"
        }
      ],
      "stateMutability": "view",
      "type": "function"
    },
    {
      "inputs": [],
      "name": "totalSupply",
      "outputs": [
        {
          "internalType": "uint256",
          "name": "",
          "type": "uint256"
        }
      ],
      "stateMutability": "view",
      "type": "function"
    },
    {
      "inputs": [
        {
          "internalType": "address",
          "name": "to",
          "type": "address"
        },
        {
          "internalType": "uint256",
          "name": "value",
          "type": "uint256"
        }
      ],
      "name": "transfer",
      "outputs": [
        {
          "internalType": "bool",
          "name": "",
          "type": "bool"
        }
      ],
      "stateMutability": "nonpayable",
      "type": "function"
    },
    {
      "inputs": [
        {
          "internalType": "address",
          "name": "from",
          "type": "address"
        },
        {
          "internalType": "address",
          "name": "to",
          "type": "address"
        },
        {
          "internalType": "uint256",
          "name": "value",
          "type": "uint256"
        }
      ],
      "name": "transferFrom",
      "outputs": [
        {
          "internalType": "bool",
          "name": "",
          "type": "bool"
        }
      ],
      "stateMutability": "nonpayable",
      "type": "function"
    },
    {
      "inputs": [
        {
          "internalType": "address",
          "name": "newOwner",
          "type": "address"
        }
      ],
      "name": "transferOwnership",
      "outputs": [],
      "stateMutability": "nonpayable",
      "type": "function"
    }
  ],
  "transactionHash": "0xa9a0f79cd6479fbe06210fdc50125ad490738dccf048aa7973cecab522c42633",
  "args": [
    "0xf960E8cEA44e0A0B502cd9c2575A93e79acCe21c"
  ],
  "numDeployments": 1,
  "solcInputHash": "202561c26e2cbce61fae6d645247461b",
  "bytecode": "0x608060405268056bc75e2d63100000600655678ac7230489e80000600755674563918244f400006008556000600b553480156200003b57600080fd5b5060405162003694380380620036948339818101604052810190620000619190620002f9565b336040518060400160405280600e81526020017f507265736953696d20546f6b656e0000000000000000000000000000000000008152506040518060400160405280600381526020017f50535400000000000000000000000000000000000000000000000000000000008152508160039081620000df9190620005a5565b508060049081620000f19190620005a5565b505050600073ffffffffffffffffffffffffffffffffffffffff168173ffffffffffffffffffffffffffffffffffffffff1603620001695760006040517f1e4fbdf70000000000000000000000000000000000000000000000000000000081526004016200016091906200069d565b60405180910390fd5b6200017a81620001c960201b60201c565b50600081905080600a60006101000a81548173ffffffffffffffffffffffffffffffffffffffff021916908373ffffffffffffffffffffffffffffffffffffffff1602179055505050620006ba565b6000600560009054906101000a900473ffffffffffffffffffffffffffffffffffffffff16905081600560006101000a81548173ffffffffffffffffffffffffffffffffffffffff021916908373ffffffffffffffffffffffffffffffffffffffff1602179055508173ffffffffffffffffffffffffffffffffffffffff168173ffffffffffffffffffffffffffffffffffffffff167f8be0079c531659141344cd1fd0a4f28419497f9722a3daafe3b4186f6b6457e060405160405180910390a35050565b600080fd5b600073ffffffffffffffffffffffffffffffffffffffff82169050919050565b6000620002c18262000294565b9050919050565b620002d381620002b4565b8114620002df57600080fd5b50565b600081519050620002f381620002c8565b92915050565b6000602082840312156200031257620003116200028f565b5b60006200032284828501620002e2565b91505092915050565b600081519050919050565b7f4e487b7100000000000000000000000000000000000000000000000000000000600052604160045260246000fd5b7f4e487b7100000000000000000000000000000000000000000000000000000000600052602260045260246000fd5b60006002820490506001821680620003ad57607f821691505b602082108103620003c357620003c262000365565b5b50919050565b60008190508160005260206000209050919050565b60006020601f8301049050919050565b600082821b905092915050565b6000600883026200042d7fffffffffffffffffffffffffffffffffffffffffffffffffffffffffffffffff82620003ee565b620004398683620003ee565b95508019841693508086168417925050509392505050565b6000819050919050565b6000819050919050565b600062000486620004806200047a8462000451565b6200045b565b62000451565b9050919050565b6000819050919050565b620004a28362000465565b620004ba620004b1826200048d565b848454620003fb565b825550505050565b600090565b620004d1620004c2565b620004de81848462000497565b505050565b5b818110156200050657620004fa600082620004c7565b600181019050620004e4565b5050565b601f82111562000555576200051f81620003c9565b6200052a84620003de565b810160208510156200053a578190505b620005526200054985620003de565b830182620004e3565b50505b505050565b600082821c905092915050565b60006200057a600019846008026200055a565b1980831691505092915050565b600062000595838362000567565b9150826002028217905092915050565b620005b0826200032b565b67ffffffffffffffff811115620005cc57620005cb62000336565b5b620005d8825462000394565b620005e58282856200050a565b600060209050601f8311600181146200061d576000841562000608578287015190505b62000614858262000587565b86555062000684565b601f1984166200062d86620003c9565b60005b82811015620006575784890151825560018201915060208501945060208101905062000630565b8683101562000677578489015162000673601f89168262000567565b8355505b6001600288020188555050505b505050505050565b6200069781620002b4565b82525050565b6000602082019050620006b460008301846200068c565b92915050565b612fca80620006ca6000396000f3fe608060405234801561001057600080fd5b50600436106101f05760003560e01c80638da5cb5b1161010f578063c964ad45116100a2578063e7dea02211610071578063e7dea0221461059b578063f2fde38b146105b9578063fa0cd4e0146105d5578063ffc418df14610605576101f0565b8063c964ad4514610513578063cb0981bc14610531578063d82ceb881461053b578063dd62ed3e1461056b576101f0565b80639cbec843116100de5780639cbec8431461048b578063a9059cbb146104a9578063b0360618146104d9578063b88a802f14610509576101f0565b80638da5cb5b146104175780638fb6c6f61461043557806395d89b41146104515780639b040b791461046f576101f0565b806323b872dd1161018757806370a082311161015657806370a082311461038f578063715018a6146103bf57806379444195146103c95780637dfca71c146103e7576101f0565b806323b872dd1461030757806326a994ca14610337578063313ce567146103535780634d68367414610371576101f0565b80630aa43533116101c35780630aa435331461027d578063117a5b901461029957806318160ddd146102cb57806320de1b23146102e9576101f0565b806306fdde03146101f55780630700037d1461021357806307ab657314610243578063095ea7b31461024d575b600080fd5b6101fd610623565b60405161020a9190611f6c565b60405180910390f35b61022d60048036038101906102289190612000565b6106b5565b60405161023a9190612046565b60405180910390f35b61024b6106cd565b005b6102676004803603810190610262919061208d565b61097d565b60405161027491906120e8565b60405180910390f35b61029760048036038101906102929190612103565b6109a0565b005b6102b360048036038101906102ae9190612103565b6109b2565b6040516102c29392919061213f565b60405180910390f35b6102d3610a94565b6040516102e09190612046565b60405180910390f35b6102f1610a9e565b6040516102fe91906121dc565b60405180910390f35b610321600480360381019061031c91906121f7565b610ac4565b60405161032e91906120e8565b60405180910390f35b610351600480360381019061034c91906122af565b610af3565b005b61035b610ea5565b6040516103689190612318565b60405180910390f35b610379610eae565b6040516103869190612046565b60405180910390f35b6103a960048036038101906103a49190612000565b610eb4565b6040516103b69190612046565b60405180910390f35b6103c7610efc565b005b6103d1610f10565b6040516103de9190612046565b60405180910390f35b61040160048036038101906103fc9190612333565b610f16565b60405161040e9190611f6c565b60405180910390f35b61041f610fc3565b60405161042c9190612373565b60405180910390f35b61044f600480360381019061044a9190612103565b610fed565b005b610459610fff565b6040516104669190611f6c565b60405180910390f35b61048960048036038101906104849190612103565b611091565b005b6104936110a3565b6040516104a09190611f6c565b60405180910390f35b6104c360048036038101906104be919061208d565b61115a565b6040516104d091906120e8565b60405180910390f35b6104f360048036038101906104ee9190612103565b61117d565b6040516105009190612373565b60405180910390f35b6105116111cc565b005b61051b6112de565b6040516105289190612046565b60405180910390f35b6105396112e4565b005b61055560048036038101906105509190612333565b611587565b60405161056291906120e8565b60405180910390f35b6105856004803603810190610580919061238e565b6115b6565b6040516105929190612046565b60405180910390f35b6105a361163d565b6040516105b09190611f6c565b60405180910390f35b6105d360048036038101906105ce9190612000565b6116cb565b005b6105ef60048036038101906105ea9190612000565b611751565b6040516105fc9190612046565b60405180910390f35b61060d611769565b60405161061a9190612046565b60405180910390f35b606060038054610632906123fd565b80601f016020809104026020016040519081016040528092919081815260200182805461065e906123fd565b80156106ab5780601f10610680576101008083540402835291602001916106ab565b820191906000526020600020905b81548152906001019060200180831161068e57829003601f168201915b5050505050905090565b60106020528060005260406000206000915090505481565b6000806040516024016040516020818303038152906040527fdc25ec06000000000000000000000000000000000000000000000000000000007bffffffffffffffffffffffffffffffffffffffffffffffffffffffff19166020820180517bffffffffffffffffffffffffffffffffffffffffffffffffffffffff838183161783525050505090506000336040516020016107689190612373565b60405160208183030381529060405261078090612475565b9050600080600a60009054906101000a900473ffffffffffffffffffffffffffffffffffffffff1673ffffffffffffffffffffffffffffffffffffffff1663839f845784866040518363ffffffff1660e01b81526004016107e2929190612535565b6000604051808303816000875af1158015610801573d6000803e3d6000fd5b505050506040513d6000823e3d601f19601f8201168201806040525081019061082a91906126c2565b9150915060008263ffffffff16036108c95780806020019051810190610850919061275c565b945061085e8560065461176f565b846009600b548154811061087557610874612789565b5b906000526020600020906003020160020160006101000a81548173ffffffffffffffffffffffffffffffffffffffff021916908373ffffffffffffffffffffffffffffffffffffffff16021790555061093b565b7f2e36364948b1eaa664a4fba44eacb1a140f6e424e9a0d6e6cfecefc3b2c391e0826040516108f891906127c7565b60405180910390a16040517f08c379a00000000000000000000000000000000000000000000000000000000081526004016109329061282e565b60405180910390fd5b7fd20660afad7d6ad1f618cb9d9d72248f980c64772f2db644705c8742d9d4e40f600b548660405161096e92919061284e565b60405180910390a15050505050565b6000806109886117f1565b90506109958185856117f9565b600191505092915050565b6109a861180b565b8060068190555050565b600981815481106109c257600080fd5b90600052602060002090600302016000915090508060000180546109e5906123fd565b80601f0160208091040260200160405190810160405280929190818152602001828054610a11906123fd565b8015610a5e5780601f10610a3357610100808354040283529160200191610a5e565b820191906000526020600020905b815481529060010190602001808311610a4157829003601f168201915b5050505050908060010154908060020160009054906101000a900473ffffffffffffffffffffffffffffffffffffffff16905083565b6000600254905090565b600a60009054906101000a900473ffffffffffffffffffffffffffffffffffffffff1681565b600080610acf6117f1565b9050610adc858285611892565b610ae7858585611926565b60019150509392505050565b600e6000600b54815260200190815260200160002060003373ffffffffffffffffffffffffffffffffffffffff1673ffffffffffffffffffffffffffffffffffffffff16815260200190815260200160002060009054906101000a900460ff1615610b93576040517f08c379a0000000000000000000000000000000000000000000000000000000008152600401610b8a906128c3565b60405180910390fd5b6001600e6000600b54815260200190815260200160002060003373ffffffffffffffffffffffffffffffffffffffff1673ffffffffffffffffffffffffffffffffffffffff16815260200190815260200160002060006101000a81548160ff0219169083151502179055508181600d6000600b54815260200190815260200160002060003373ffffffffffffffffffffffffffffffffffffffff1673ffffffffffffffffffffffffffffffffffffffff1681526020019081526020016000209182610c5f929190612a83565b506000600b541480610cd95750600e60006001600b54610c7f9190612b82565b815260200190815260200160002060003373ffffffffffffffffffffffffffffffffffffffff1673ffffffffffffffffffffffffffffffffffffffff16815260200190815260200160002060009054906101000a900460ff165b15610e1d57600f60003373ffffffffffffffffffffffffffffffffffffffff1673ffffffffffffffffffffffffffffffffffffffff1681526020019081526020016000206000815480929190610d2e90612bb6565b91905055506007600f60003373ffffffffffffffffffffffffffffffffffffffff1673ffffffffffffffffffffffffffffffffffffffff1681526020019081526020016000205410610e1857600854601060003373ffffffffffffffffffffffffffffffffffffffff1673ffffffffffffffffffffffffffffffffffffffff1681526020019081526020016000206000828254610dcb9190612bfe565b925050819055506000600f60003373ffffffffffffffffffffffffffffffffffffffff1673ffffffffffffffffffffffffffffffffffffffff168152602001908152602001600020819055505b610e63565b6000600f60003373ffffffffffffffffffffffffffffffffffffffff1673ffffffffffffffffffffffffffffffffffffffff168152602001908152602001600020819055505b600b547f7eace2b90e1958724bc732308ed5dedbe51c6cc66bb401896053a0fb0f995c84338484604051610e9993929190612c6e565b60405180910390a25050565b60006012905090565b60075481565b60008060008373ffffffffffffffffffffffffffffffffffffffff1673ffffffffffffffffffffffffffffffffffffffff168152602001908152602001600020549050919050565b610f0461180b565b610f0e6000611a1a565b565b60085481565b600d602052816000526040600020602052806000526040600020600091509150508054610f42906123fd565b80601f0160208091040260200160405190810160405280929190818152602001828054610f6e906123fd565b8015610fbb5780601f10610f9057610100808354040283529160200191610fbb565b820191906000526020600020905b815481529060010190602001808311610f9e57829003601f168201915b505050505081565b6000600560009054906101000a900473ffffffffffffffffffffffffffffffffffffffff16905090565b610ff561180b565b8060078190555050565b60606004805461100e906123fd565b80601f016020809104026020016040519081016040528092919081815260200182805461103a906123fd565b80156110875780601f1061105c57610100808354040283529160200191611087565b820191906000526020600020905b81548152906001019060200180831161106a57829003601f168201915b5050505050905090565b61109961180b565b8060088190555050565b60606009600b54815481106110bb576110ba612789565b5b906000526020600020906003020160000180546110d7906123fd565b80601f0160208091040260200160405190810160405280929190818152602001828054611103906123fd565b80156111505780601f1061112557610100808354040283529160200191611150565b820191906000526020600020905b81548152906001019060200180831161113357829003601f168201915b5050505050905090565b6000806111656117f1565b9050611172818585611926565b600191505092915050565b60006009828154811061119357611192612789565b5b906000526020600020906003020160020160009054906101000a900473ffffffffffffffffffffffffffffffffffffffff169050919050565b6000601060003373ffffffffffffffffffffffffffffffffffffffff1673ffffffffffffffffffffffffffffffffffffffff16815260200190815260200160002054905060008111611253576040517f08c379a000000000000000000000000000000000000000000000000000000000815260040161124a90612cec565b60405180910390fd5b6000601060003373ffffffffffffffffffffffffffffffffffffffff1673ffffffffffffffffffffffffffffffffffffffff168152602001908152602001600020819055506112a2338261176f565b7f106f923f993c2149d49b4255ff723acafa1f2d94393f561d3eda32ae348f724133826040516112d3929190612d0c565b60405180910390a150565b60065481565b606060006040516024016040516020818303038152906040527f4eaa708a000000000000000000000000000000000000000000000000000000007bffffffffffffffffffffffffffffffffffffffffffffffffffffffff19166020820180517bffffffffffffffffffffffffffffffffffffffffffffffffffffffff838183161783525050505090506000336040516020016113809190612373565b60405160208183030381529060405261139890612475565b9050600080600a60009054906101000a900473ffffffffffffffffffffffffffffffffffffffff1673ffffffffffffffffffffffffffffffffffffffff1663839f845784866040518363ffffffff1660e01b81526004016113fa929190612535565b6000604051808303816000875af1158015611419573d6000803e3d6000fd5b505050506040513d6000823e3d601f19601f8201168201806040525081019061144291906126c2565b9150915060008263ffffffff160361146f57808060200190518101906114689190612dd6565b94506114e1565b7f2e36364948b1eaa664a4fba44eacb1a140f6e424e9a0d6e6cfecefc3b2c391e08260405161149e91906127c7565b60405180910390a16040517f08c379a00000000000000000000000000000000000000000000000000000000081526004016114d890612e6b565b60405180910390fd5b600060096001816001815401808255809150500390600052602060002090600302019050858160000190816115169190612e8b565b5042816001018190555060016009805490506115329190612b82565b600b8190555085600c90816115479190612e8b565b507f140b3c02b5e6e7603ee1f030db05e6f0353fd29f12847793e2a7404c2dedcc5e866040516115779190611f6c565b60405180910390a1505050505050565b600e6020528160005260406000206020528060005260406000206000915091509054906101000a900460ff1681565b6000600160008473ffffffffffffffffffffffffffffffffffffffff1673ffffffffffffffffffffffffffffffffffffffff16815260200190815260200160002060008373ffffffffffffffffffffffffffffffffffffffff1673ffffffffffffffffffffffffffffffffffffffff16815260200190815260200160002054905092915050565b600c805461164a906123fd565b80601f0160208091040260200160405190810160405280929190818152602001828054611676906123fd565b80156116c35780601f10611698576101008083540402835291602001916116c3565b820191906000526020600020905b8154815290600101906020018083116116a657829003601f168201915b505050505081565b6116d361180b565b600073ffffffffffffffffffffffffffffffffffffffff168173ffffffffffffffffffffffffffffffffffffffff16036117455760006040517f1e4fbdf700000000000000000000000000000000000000000000000000000000815260040161173c9190612373565b60405180910390fd5b61174e81611a1a565b50565b600f6020528060005260406000206000915090505481565b600b5481565b600073ffffffffffffffffffffffffffffffffffffffff168273ffffffffffffffffffffffffffffffffffffffff16036117e15760006040517fec442f050000000000000000000000000000000000000000000000000000000081526004016117d89190612373565b60405180910390fd5b6117ed60008383611ae0565b5050565b600033905090565b6118068383836001611d05565b505050565b6118136117f1565b73ffffffffffffffffffffffffffffffffffffffff16611831610fc3565b73ffffffffffffffffffffffffffffffffffffffff1614611890576118546117f1565b6040517f118cdaa70000000000000000000000000000000000000000000000000000000081526004016118879190612373565b60405180910390fd5b565b600061189e84846115b6565b90507fffffffffffffffffffffffffffffffffffffffffffffffffffffffffffffffff81146119205781811015611910578281836040517ffb8f41b200000000000000000000000000000000000000000000000000000000815260040161190793929190612f5d565b60405180910390fd5b61191f84848484036000611d05565b5b50505050565b600073ffffffffffffffffffffffffffffffffffffffff168373ffffffffffffffffffffffffffffffffffffffff16036119985760006040517f96c6fd1e00000000000000000000000000000000000000000000000000000000815260040161198f9190612373565b60405180910390fd5b600073ffffffffffffffffffffffffffffffffffffffff168273ffffffffffffffffffffffffffffffffffffffff1603611a0a5760006040517fec442f05000000000000000000000000000000000000000000000000000000008152600401611a019190612373565b60405180910390fd5b611a15838383611ae0565b505050565b6000600560009054906101000a900473ffffffffffffffffffffffffffffffffffffffff16905081600560006101000a81548173ffffffffffffffffffffffffffffffffffffffff021916908373ffffffffffffffffffffffffffffffffffffffff1602179055508173ffffffffffffffffffffffffffffffffffffffff168173ffffffffffffffffffffffffffffffffffffffff167f8be0079c531659141344cd1fd0a4f28419497f9722a3daafe3b4186f6b6457e060405160405180910390a35050565b600073ffffffffffffffffffffffffffffffffffffffff168373ffffffffffffffffffffffffffffffffffffffff1603611b32578060026000828254611b269190612bfe565b92505081905550611c05565b60008060008573ffffffffffffffffffffffffffffffffffffffff1673ffffffffffffffffffffffffffffffffffffffff16815260200190815260200160002054905081811015611bbe578381836040517fe450d38c000000000000000000000000000000000000000000000000000000008152600401611bb593929190612f5d565b60405180910390fd5b8181036000808673ffffffffffffffffffffffffffffffffffffffff1673ffffffffffffffffffffffffffffffffffffffff16815260200190815260200160002081905550505b600073ffffffffffffffffffffffffffffffffffffffff168273ffffffffffffffffffffffffffffffffffffffff1603611c4e5780600260008282540392505081905550611c9b565b806000808473ffffffffffffffffffffffffffffffffffffffff1673ffffffffffffffffffffffffffffffffffffffff168152602001908152602001600020600082825401925050819055505b8173ffffffffffffffffffffffffffffffffffffffff168373ffffffffffffffffffffffffffffffffffffffff167fddf252ad1be2c89b69c2b068fc378daa952ba7f163c4a11628f55a4df523b3ef83604051611cf89190612046565b60405180910390a3505050565b600073ffffffffffffffffffffffffffffffffffffffff168473ffffffffffffffffffffffffffffffffffffffff1603611d775760006040517fe602df05000000000000000000000000000000000000000000000000000000008152600401611d6e9190612373565b60405180910390fd5b600073ffffffffffffffffffffffffffffffffffffffff168373ffffffffffffffffffffffffffffffffffffffff1603611de95760006040517f94280d62000000000000000000000000000000000000000000000000000000008152600401611de09190612373565b60405180910390fd5b81600160008673ffffffffffffffffffffffffffffffffffffffff1673ffffffffffffffffffffffffffffffffffffffff16815260200190815260200160002060008573ffffffffffffffffffffffffffffffffffffffff1673ffffffffffffffffffffffffffffffffffffffff168152602001908152602001600020819055508015611ed6578273ffffffffffffffffffffffffffffffffffffffff168473ffffffffffffffffffffffffffffffffffffffff167f8c5be1e5ebec7d5bd14f71427d1e84f3dd0314c0f7b2291e5b200ac8c7c3b92584604051611ecd9190612046565b60405180910390a35b50505050565b600081519050919050565b600082825260208201905092915050565b60005b83811015611f16578082015181840152602081019050611efb565b60008484015250505050565b6000601f19601f8301169050919050565b6000611f3e82611edc565b611f488185611ee7565b9350611f58818560208601611ef8565b611f6181611f22565b840191505092915050565b60006020820190508181036000830152611f868184611f33565b905092915050565b6000604051905090565b600080fd5b600080fd5b600073ffffffffffffffffffffffffffffffffffffffff82169050919050565b6000611fcd82611fa2565b9050919050565b611fdd81611fc2565b8114611fe857600080fd5b50565b600081359050611ffa81611fd4565b92915050565b60006020828403121561201657612015611f98565b5b600061202484828501611feb565b91505092915050565b6000819050919050565b6120408161202d565b82525050565b600060208201905061205b6000830184612037565b92915050565b61206a8161202d565b811461207557600080fd5b50565b60008135905061208781612061565b92915050565b600080604083850312156120a4576120a3611f98565b5b60006120b285828601611feb565b92505060206120c385828601612078565b9150509250929050565b60008115159050919050565b6120e2816120cd565b82525050565b60006020820190506120fd60008301846120d9565b92915050565b60006020828403121561211957612118611f98565b5b600061212784828501612078565b91505092915050565b61213981611fc2565b82525050565b600060608201905081810360008301526121598186611f33565b90506121686020830185612037565b6121756040830184612130565b949350505050565b6000819050919050565b60006121a261219d61219884611fa2565b61217d565b611fa2565b9050919050565b60006121b482612187565b9050919050565b60006121c6826121a9565b9050919050565b6121d6816121bb565b82525050565b60006020820190506121f160008301846121cd565b92915050565b6000806000606084860312156122105761220f611f98565b5b600061221e86828701611feb565b935050602061222f86828701611feb565b925050604061224086828701612078565b9150509250925092565b600080fd5b600080fd5b600080fd5b60008083601f84011261226f5761226e61224a565b5b8235905067ffffffffffffffff81111561228c5761228b61224f565b5b6020830191508360018202830111156122a8576122a7612254565b5b9250929050565b600080602083850312156122c6576122c5611f98565b5b600083013567ffffffffffffffff8111156122e4576122e3611f9d565b5b6122f085828601612259565b92509250509250929050565b600060ff82169050919050565b612312816122fc565b82525050565b600060208201905061232d6000830184612309565b92915050565b6000806040838503121561234a57612349611f98565b5b600061235885828601612078565b925050602061236985828601611feb565b9150509250929050565b60006020820190506123886000830184612130565b92915050565b600080604083850312156123a5576123a4611f98565b5b60006123b385828601611feb565b92505060206123c485828601611feb565b9150509250929050565b7f4e487b7100000000000000000000000000000000000000000000000000000000600052602260045260246000fd5b6000600282049050600182168061241557607f821691505b602082108103612428576124276123ce565b5b50919050565b600081519050919050565b6000819050602082019050919050565b6000819050919050565b600061245f8251612449565b80915050919050565b600082821b905092915050565b60006124808261242e565b8261248a84612439565b905061249581612453565b925060208210156124d5576124d07fffffffffffffffffffffffffffffffffffffffffffffffffffffffffffffffff83602003600802612468565b831692505b5050919050565b6124e581612449565b82525050565b600082825260208201905092915050565b60006125078261242e565b61251181856124eb565b9350612521818560208601611ef8565b61252a81611f22565b840191505092915050565b600060408201905061254a60008301856124dc565b818103602083015261255c81846124fc565b90509392505050565b600063ffffffff82169050919050565b61257e81612565565b811461258957600080fd5b50565b60008151905061259b81612575565b92915050565b600080fd5b7f4e487b7100000000000000000000000000000000000000000000000000000000600052604160045260246000fd5b6125de82611f22565b810181811067ffffffffffffffff821117156125fd576125fc6125a6565b5b80604052505050565b6000612610611f8e565b905061261c82826125d5565b919050565b600067ffffffffffffffff82111561263c5761263b6125a6565b5b61264582611f22565b9050602081019050919050565b600061266561266084612621565b612606565b905082815260208101848484011115612681576126806125a1565b5b61268c848285611ef8565b509392505050565b600082601f8301126126a9576126a861224a565b5b81516126b9848260208601612652565b91505092915050565b600080604083850312156126d9576126d8611f98565b5b60006126e78582860161258c565b925050602083015167ffffffffffffffff81111561270857612707611f9d565b5b61271485828601612694565b9150509250929050565b600061272982611fa2565b9050919050565b6127398161271e565b811461274457600080fd5b50565b60008151905061275681612730565b92915050565b60006020828403121561277257612771611f98565b5b600061278084828501612747565b91505092915050565b7f4e487b7100000000000000000000000000000000000000000000000000000000600052603260045260246000fd5b6127c181612565565b82525050565b60006020820190506127dc60008301846127b8565b92915050565b7f4572726f72207375626d697474696e6720726573756c74730000000000000000600082015250565b6000612818601883611ee7565b9150612823826127e2565b602082019050919050565b600060208201905081810360008301526128478161280b565b9050919050565b60006040820190506128636000830185612037565b6128706020830184612130565b9392505050565b7f596f75206861766520616c726561647920706c6179656420746f646179000000600082015250565b60006128ad601d83611ee7565b91506128b882612877565b602082019050919050565b600060208201905081810360008301526128dc816128a0565b9050919050565b600082905092915050565b60008190508160005260206000209050919050565b60006020601f8301049050919050565b6000600883026129437fffffffffffffffffffffffffffffffffffffffffffffffffffffffffffffffff82612468565b61294d8683612468565b95508019841693508086168417925050509392505050565b600061298061297b6129768461202d565b61217d565b61202d565b9050919050565b6000819050919050565b61299a83612965565b6129ae6129a682612987565b848454612913565b825550505050565b600090565b6129c36129b6565b6129ce818484612991565b505050565b5b818110156129f2576129e76000826129bb565b6001810190506129d4565b5050565b601f821115612a3757612a08816128ee565b612a1184612903565b81016020851015612a20578190505b612a34612a2c85612903565b8301826129d3565b50505b505050565b600082821c905092915050565b6000612a5a60001984600802612a3c565b1980831691505092915050565b6000612a738383612a49565b9150826002028217905092915050565b612a8d83836128e3565b67ffffffffffffffff811115612aa657612aa56125a6565b5b612ab082546123fd565b612abb8282856129f6565b6000601f831160018114612aea5760008415612ad8578287013590505b612ae28582612a67565b865550612b4a565b601f198416612af8866128ee565b60005b82811015612b2057848901358255600182019150602085019450602081019050612afb565b86831015612b3d5784890135612b39601f891682612a49565b8355505b6001600288020188555050505b50505050505050565b7f4e487b7100000000000000000000000000000000000000000000000000000000600052601160045260246000fd5b6000612b8d8261202d565b9150612b988361202d565b9250828203905081811115612bb057612baf612b53565b5b92915050565b6000612bc18261202d565b91507fffffffffffffffffffffffffffffffffffffffffffffffffffffffffffffffff8203612bf357612bf2612b53565b5b600182019050919050565b6000612c098261202d565b9150612c148361202d565b9250828201905080821115612c2c57612c2b612b53565b5b92915050565b82818337600083830152505050565b6000612c4d8385611ee7565b9350612c5a838584612c32565b612c6383611f22565b840190509392505050565b6000604082019050612c836000830186612130565b8181036020830152612c96818486612c41565b9050949350505050565b7f4e6f207265776172647320617661696c61626c65000000000000000000000000600082015250565b6000612cd6601483611ee7565b9150612ce182612ca0565b602082019050919050565b60006020820190508181036000830152612d0581612cc9565b9050919050565b6000604082019050612d216000830185612130565b612d2e6020830184612037565b9392505050565b600067ffffffffffffffff821115612d5057612d4f6125a6565b5b612d5982611f22565b9050602081019050919050565b6000612d79612d7484612d35565b612606565b905082815260208101848484011115612d9557612d946125a1565b5b612da0848285611ef8565b509392505050565b600082601f830112612dbd57612dbc61224a565b5b8151612dcd848260208601612d66565b91505092915050565b600060208284031215612dec57612deb611f98565b5b600082015167ffffffffffffffff811115612e0a57612e09611f9d565b5b612e1684828501612da8565b91505092915050565b7f4572726f72206665746368696e67207175657374696f6e000000000000000000600082015250565b6000612e55601783611ee7565b9150612e6082612e1f565b602082019050919050565b60006020820190508181036000830152612e8481612e48565b9050919050565b612e9482611edc565b67ffffffffffffffff811115612ead57612eac6125a6565b5b612eb782546123fd565b612ec28282856129f6565b600060209050601f831160018114612ef55760008415612ee3578287015190505b612eed8582612a67565b865550612f55565b601f198416612f03866128ee565b60005b82811015612f2b57848901518255600182019150602085019450602081019050612f06565b86831015612f485784890151612f44601f891682612a49565b8355505b6001600288020188555050505b505050505050565b6000606082019050612f726000830186612130565b612f7f6020830185612037565b612f8c6040830184612037565b94935050505056fea2646970667358221220afc360c7dbc264c9ee2458bf27b875440f60f1401c5f064c37de0aee750124d664736f6c63430008180033",
  "devdoc": {
    "details": "ERC20 token with game logic for rewards.",
    "errors": {
      "ERC20InsufficientAllowance(address,uint256,uint256)": [
        {
          "details": "Indicates a failure with the `spender`s `allowance`. Used in transfers.",
          "params": {
            "allowance": "Amount of tokens a `spender` is allowed to operate with.",
            "needed": "Minimum amount required to perform a transfer.",
            "spender": "Address that may be allowed to operate on tokens without being their owner."
          }
        }
      ],
      "ERC20InsufficientBalance(address,uint256,uint256)": [
        {
          "details": "Indicates an error related to the current `balance` of a `sender`. Used in transfers.",
          "params": {
            "balance": "Current balance for the interacting account.",
            "needed": "Minimum amount required to perform a transfer.",
            "sender": "Address whose tokens are being transferred."
          }
        }
      ],
      "ERC20InvalidApprover(address)": [
        {
          "details": "Indicates a failure with the `approver` of a token to be approved. Used in approvals.",
          "params": {
            "approver": "Address initiating an approval operation."
          }
        }
      ],
      "ERC20InvalidReceiver(address)": [
        {
          "details": "Indicates a failure with the token `receiver`. Used in transfers.",
          "params": {
            "receiver": "Address to which tokens are being transferred."
          }
        }
      ],
      "ERC20InvalidSender(address)": [
        {
          "details": "Indicates a failure with the token `sender`. Used in transfers.",
          "params": {
            "sender": "Address whose tokens are being transferred."
          }
        }
      ],
      "ERC20InvalidSpender(address)": [
        {
          "details": "Indicates a failure with the `spender` to be approved. Used in approvals.",
          "params": {
            "spender": "Address that may be allowed to operate on tokens without being their owner."
          }
        }
      ],
      "OwnableInvalidOwner(address)": [
        {
          "details": "The owner is not a valid owner account. (eg. `address(0)`)"
        }
      ],
      "OwnableUnauthorizedAccount(address)": [
        {
          "details": "The caller account is not authorized to perform an operation."
        }
      ]
    },
    "events": {
      "Approval(address,address,uint256)": {
        "details": "Emitted when the allowance of a `spender` for an `owner` is set by a call to {approve}. `value` is the new allowance."
      },
      "Transfer(address,address,uint256)": {
        "details": "Emitted when `value` tokens are moved from one account (`from`) to another (`to`). Note that `value` may be zero."
      }
    },
    "kind": "dev",
    "methods": {
      "allowance(address,address)": {
        "details": "See {IERC20-allowance}."
      },
      "approve(address,uint256)": {
        "details": "See {IERC20-approve}. NOTE: If `value` is the maximum `uint256`, the allowance is not updated on `transferFrom`. This is semantically equivalent to an infinite approval. Requirements: - `spender` cannot be the zero address."
      },
      "balanceOf(address)": {
        "details": "See {IERC20-balanceOf}."
      },
      "decimals()": {
        "details": "Returns the number of decimals used to get its user representation. For example, if `decimals` equals `2`, a balance of `505` tokens should be displayed to a user as `5.05` (`505 / 10 ** 2`). Tokens usually opt for a value of 18, imitating the relationship between Ether and Wei. This is the default value returned by this function, unless it's overridden. NOTE: This information is only used for _display_ purposes: it in no way affects any of the arithmetic of the contract, including {IERC20-balanceOf} and {IERC20-transfer}."
      },
      "name()": {
        "details": "Returns the name of the token."
      },
      "owner()": {
        "details": "Returns the address of the current owner."
      },
      "renounceOwnership()": {
        "details": "Leaves the contract without owner. It will not be possible to call `onlyOwner` functions. Can only be called by the current owner. NOTE: Renouncing ownership will leave the contract without an owner, thereby disabling any functionality that is only available to the owner."
      },
      "setConsecutiveReward(uint256)": {
        "params": {
          "_newConsecutiveReward": "New consecutive games reward amount"
        }
      },
      "setDailyReward(uint256)": {
        "params": {
          "_newDailyReward": "New daily reward amount"
        }
      },
      "setReferralReward(uint256)": {
        "params": {
          "_newReferralReward": "New referral reward amount"
        }
      },
      "submitByPlayer(string)": {
        "params": {
          "answer": "Player's answer"
        }
      },
      "symbol()": {
        "details": "Returns the symbol of the token, usually a shorter version of the name."
      },
      "totalSupply()": {
        "details": "See {IERC20-totalSupply}."
      },
      "transfer(address,uint256)": {
        "details": "See {IERC20-transfer}. Requirements: - `to` cannot be the zero address. - the caller must have a balance of at least `value`."
      },
      "transferFrom(address,address,uint256)": {
        "details": "See {IERC20-transferFrom}. Emits an {Approval} event indicating the updated allowance. This is not required by the EIP. See the note at the beginning of {ERC20}. NOTE: Does not update the allowance if the current allowance is the maximum `uint256`. Requirements: - `from` and `to` cannot be the zero address. - `from` must have a balance of at least `value`. - the caller must have allowance for ``from``'s tokens of at least `value`."
      },
      "transferOwnership(address)": {
        "details": "Transfers ownership of the contract to a new account (`newOwner`). Can only be called by the current owner."
      }
    },
    "title": "PresiSimToken",
    "version": 1
  },
  "userdoc": {
    "kind": "user",
    "methods": {
      "claimReward()": {
        "notice": "Allows a player to claim their accumulated rewards"
      },
      "getDailyQuestion()": {
        "notice": "Fetches the daily question from the backend"
      },
      "setConsecutiveReward(uint256)": {
        "notice": "Sets a new consecutive games reward"
      },
      "setDailyReward(uint256)": {
        "notice": "Sets a new daily reward"
      },
      "setReferralReward(uint256)": {
        "notice": "Sets a new referral reward"
      },
      "submitByPlayer(string)": {
        "notice": "Allows a player to submit their answer and handle referrals"
      },
      "submitResults()": {
        "notice": "Submits the game results to the backend"
      }
    },
    "version": 1
  },
  "storageLayout": {
    "storage": [
      {
        "astId": 1050,
        "contract": "contracts/PresiSimToken.sol:PresiSimToken",
        "label": "_balances",
        "offset": 0,
        "slot": "0",
        "type": "t_mapping(t_address,t_uint256)"
      },
      {
        "astId": 1056,
        "contract": "contracts/PresiSimToken.sol:PresiSimToken",
        "label": "_allowances",
        "offset": 0,
        "slot": "1",
        "type": "t_mapping(t_address,t_mapping(t_address,t_uint256))"
      },
      {
        "astId": 1058,
        "contract": "contracts/PresiSimToken.sol:PresiSimToken",
        "label": "_totalSupply",
        "offset": 0,
        "slot": "2",
        "type": "t_uint256"
      },
      {
        "astId": 1060,
        "contract": "contracts/PresiSimToken.sol:PresiSimToken",
        "label": "_name",
        "offset": 0,
        "slot": "3",
        "type": "t_string_storage"
      },
      {
        "astId": 1062,
        "contract": "contracts/PresiSimToken.sol:PresiSimToken",
        "label": "_symbol",
        "offset": 0,
        "slot": "4",
        "type": "t_string_storage"
      },
      {
        "astId": 8,
        "contract": "contracts/PresiSimToken.sol:PresiSimToken",
        "label": "_owner",
        "offset": 0,
        "slot": "5",
        "type": "t_address"
      },
      {
        "astId": 3894,
        "contract": "contracts/PresiSimToken.sol:PresiSimToken",
        "label": "dailyReward",
        "offset": 0,
        "slot": "6",
        "type": "t_uint256"
      },
      {
        "astId": 3902,
        "contract": "contracts/PresiSimToken.sol:PresiSimToken",
        "label": "referralReward",
        "offset": 0,
        "slot": "7",
        "type": "t_uint256"
      },
      {
        "astId": 3910,
        "contract": "contracts/PresiSimToken.sol:PresiSimToken",
        "label": "consecutiveReward",
        "offset": 0,
        "slot": "8",
        "type": "t_uint256"
      },
      {
        "astId": 3926,
        "contract": "contracts/PresiSimToken.sol:PresiSimToken",
        "label": "games",
        "offset": 0,
        "slot": "9",
        "type": "t_array(t_struct(Game)3922_storage)dyn_storage"
      },
      {
        "astId": 3929,
        "contract": "contracts/PresiSimToken.sol:PresiSimToken",
        "label": "HA",
        "offset": 0,
        "slot": "10",
        "type": "t_contract(HybridAccount)5760"
      },
      {
        "astId": 3932,
        "contract": "contracts/PresiSimToken.sol:PresiSimToken",
        "label": "currentGameID",
        "offset": 0,
        "slot": "11",
        "type": "t_uint256"
      },
      {
        "astId": 3934,
        "contract": "contracts/PresiSimToken.sol:PresiSimToken",
        "label": "currentQuestion",
        "offset": 0,
        "slot": "12",
        "type": "t_string_storage"
      },
      {
        "astId": 3940,
        "contract": "contracts/PresiSimToken.sol:PresiSimToken",
        "label": "answers",
        "offset": 0,
        "slot": "13",
        "type": "t_mapping(t_uint256,t_mapping(t_address,t_string_storage))"
      },
      {
        "astId": 3946,
        "contract": "contracts/PresiSimToken.sol:PresiSimToken",
        "label": "hasPlayed",
        "offset": 0,
        "slot": "14",
        "type": "t_mapping(t_uint256,t_mapping(t_address,t_bool))"
      },
      {
        "astId": 3950,
        "contract": "contracts/PresiSimToken.sol:PresiSimToken",
        "label": "consecutiveGamesPlayed",
        "offset": 0,
        "slot": "15",
        "type": "t_mapping(t_address,t_uint256)"
      },
      {
        "astId": 3954,
        "contract": "contracts/PresiSimToken.sol:PresiSimToken",
        "label": "rewards",
        "offset": 0,
        "slot": "16",
        "type": "t_mapping(t_address,t_uint256)"
      }
    ],
    "types": {
      "t_address": {
        "encoding": "inplace",
        "label": "address",
        "numberOfBytes": "20"
      },
      "t_array(t_struct(Game)3922_storage)dyn_storage": {
        "base": "t_struct(Game)3922_storage",
        "encoding": "dynamic_array",
        "label": "struct PresiSimToken.Game[]",
        "numberOfBytes": "32"
      },
      "t_bool": {
        "encoding": "inplace",
        "label": "bool",
        "numberOfBytes": "1"
      },
      "t_contract(HybridAccount)5760": {
        "encoding": "inplace",
        "label": "contract HybridAccount",
        "numberOfBytes": "20"
      },
      "t_mapping(t_address,t_bool)": {
        "encoding": "mapping",
        "key": "t_address",
        "label": "mapping(address => bool)",
        "numberOfBytes": "32",
        "value": "t_bool"
      },
      "t_mapping(t_address,t_mapping(t_address,t_uint256))": {
        "encoding": "mapping",
        "key": "t_address",
        "label": "mapping(address => mapping(address => uint256))",
        "numberOfBytes": "32",
        "value": "t_mapping(t_address,t_uint256)"
      },
      "t_mapping(t_address,t_string_storage)": {
        "encoding": "mapping",
        "key": "t_address",
        "label": "mapping(address => string)",
        "numberOfBytes": "32",
        "value": "t_string_storage"
      },
      "t_mapping(t_address,t_uint256)": {
        "encoding": "mapping",
        "key": "t_address",
        "label": "mapping(address => uint256)",
        "numberOfBytes": "32",
        "value": "t_uint256"
      },
      "t_mapping(t_uint256,t_mapping(t_address,t_bool))": {
        "encoding": "mapping",
        "key": "t_uint256",
        "label": "mapping(uint256 => mapping(address => bool))",
        "numberOfBytes": "32",
        "value": "t_mapping(t_address,t_bool)"
      },
      "t_mapping(t_uint256,t_mapping(t_address,t_string_storage))": {
        "encoding": "mapping",
        "key": "t_uint256",
        "label": "mapping(uint256 => mapping(address => string))",
        "numberOfBytes": "32",
        "value": "t_mapping(t_address,t_string_storage)"
      },
      "t_string_storage": {
        "encoding": "bytes",
        "label": "string",
        "numberOfBytes": "32"
      },
      "t_struct(Game)3922_storage": {
        "encoding": "inplace",
        "label": "struct PresiSimToken.Game",
        "members": [
          {
            "astId": 3917,
            "contract": "contracts/PresiSimToken.sol:PresiSimToken",
            "label": "question",
            "offset": 0,
            "slot": "0",
            "type": "t_string_storage"
          },
          {
            "astId": 3919,
            "contract": "contracts/PresiSimToken.sol:PresiSimToken",
            "label": "timeOfFetch",
            "offset": 0,
            "slot": "1",
            "type": "t_uint256"
          },
          {
            "astId": 3921,
            "contract": "contracts/PresiSimToken.sol:PresiSimToken",
            "label": "winner",
            "offset": 0,
            "slot": "2",
            "type": "t_address"
          }
        ],
        "numberOfBytes": "96"
      },
      "t_uint256": {
        "encoding": "inplace",
        "label": "uint256",
        "numberOfBytes": "32"
      }
    }
  }
}